:100000000C945B000C9481000C9481000C94810092
:100010000C9481000C9481000C9481000C9481005C
:100020000C9481000C9481000C9481000C9481004C
:100030000C9481000C9481000C9481000C9481003C
:100040000C94DC030C9481000C9486020C948100C7
:100050000C9481000C9481000C9481000C9481001C
:100060000C9481000C9481000B02000024272A00CC
:100070000025282B0000232629040404040404047A
:100080000402020202020203030303030301020447
:10009000081020408001020408102001020408100A
:1000A0002000000007000201000003040600000019
:1000B00000000000000011241FBECFEFD4E0DEBF1F
:1000C000CDBF11E0A0E0B1E0E2E6FBE002C00590A8
:1000D0000D92AA31B107D9F711E0AAE1B1E001C050
:1000E0001D92A33AB107E1F710E0CAE6D0E004C0E0
:1000F0002297FE010E94AD05C836D107C9F70C94BE
:100100003B010C940000EF92FF920F931F93CF934B
:10011000DF9360E080910F010E94FC04C7E1D1E011
:10012000299141E060911101809115010E94A00385
:1001300081E0CA31D807A1F784E690E00E943B0431
:1001400060E0809115010E94FC04C0E0D0E059C03D
:1001500061E0809111010E94FC04809113010E94D2
:10016000B00460E0809111010E94FC0482E390E001
:100170000E943B040F5F1F4F0830110549F721967D
:10018000CB30D105F1F561E080910F010E94FC04B4
:1001900040E855E260E070E08AE191E00E940502EB
:1001A00060E071E08AE191E00E94EC01EE24FF241E
:1001B000870120E130E0B801A7018AE191E00E94C7
:1001C000BE016BE071E08AE191E00E94EC0120E069
:1001D00030E0B801A7018AE191E00E94BE016DE024
:1001E00071E08AE191E00E94EC010894E11CF11CAD
:1001F000011D111D8BE0E816F10401051105C9F67A
:1002000003C000E010E0A4CF6DE071E08AE191E06E
:100210000E94EC0168E873E180E090E00E9419041C
:10022000DF91CF911F910F91FF90EF90089561E0C2
:1002300080910F010E94920461E0809111010E945F
:10024000920461E0809115010E94920460E0809127
:1002500013010E94920461E080910F010E94FC044E
:1002600060E0809111010E94FC0460E08091150122
:100270000E94FC040895CFEFD4E0DEBFCDBF0E9402
:1002800048040E9417010E948300FDCF089508953D
:10029000CB01BA013327442755270E94D402089581
:1002A0002AE00E9448010895AB01662777270E9443
:1002B00050010895862F0E94C4020895862F0E943F
:1002C000C40208950F931F938C016DE00E945E019C
:1002D0006AE0C8010E945E011F910F9108950F937B
:1002E0001F938C010E945001C8010E9462011F915E
:1002F0000F9108950F931F938C010E945A01C8011A
:100300000E9462011F910F9108950F931F938C011A
:100310000E945E01C8010E9462011F910F91089521
:10032000EF92FF920F931F93CF93DF93EC017A012B
:100330008B0177FF0BC06DE20E945E011095009566
:10034000F094E094E11CF11C011D111D2AE0B8019C
:10035000A701CE010E944801DF91CF911F910F911B
:10036000FF90EF9008950F931F938C010E949001CE
:10037000C8010E9462011F910F9108952115310556
:1003800021F4642F0E945E0108952A30310519F48A
:100390000E94900108950E94480108950F931F93B1
:1003A0008C010E94BE01C8010E9462011F910F9141
:1003B0000895AB01662757FD6095762F0E94900146
:1003C00008950F931F938C010E94D901C8010E94C8
:1003D00062011F910F910895CB010E94930308952C
:1003E0000F931F938C010E94EC01C8010E946201CF
:1003F0001F910F9108950E947D0208950E945E0250
:1004000008950E944D0299270895CB01BA010E94D8
:100410000C02089508950895EF92FF920F931F9391
:100420007B018C0122E030E040E050E00E947C053E
:10043000205C3D4B404F5F4FCA01B901A8019701B5
:100440000E947C052150304040405040BB2757FD62
:10045000BA95A52F942F832F2F5F3F4F4F4F5F4F9C
:100460008093C50021502093C400E1ECF0E080812E
:1004700080618083808188608083808180688083C0
:100480001F910F91FF90EF900895982F8091C000D9
:1004900085FFFCCF9093C600089580911B01909139
:1004A0001C0120911D0130911E01821B930B80586D
:1004B0009F4F60E870E00E944705089540911D013C
:1004C00050911E0180911B0190911C01841795078A
:1004D00019F48FEF9FEF0895FA01E15EFE4F20813E
:1004E000CA01019660E870E00E94470590931E01E2
:1004F00080931D01822F9927089580911D0190916D
:100500001E0190931C0180931B0108951F920F926E
:100510000FB60F9211242F933F934F935F936F93D6
:100520007F938F939F93AF93BF93EF93FF934091EC
:10053000C600E0911B01F0911C01CF01019660E81B
:1005400070E00E9447059C0180911D0190911E0161
:100550002817390739F0E15EFE4F408330931C01C4
:1005600020931B01FF91EF91BF91AF919F918F91CC
:100570007F916F915F914F913F912F910F900FBE9F
:100580000F901F9018950895982F8091C00085FFB7
:10059000FCCF9093C60008958091C00085FFFCCFEA
:1005A0008AE08093C60008952F923F924F925F9207
:1005B0006F927F928F929F92AF92BF92CF92DF9273
:1005C000EF92FF920F931F93CF93DF93CDB7DEB7D8
:1005D000A0970FB6F894DEBF0FBECDBF6B017C01B4
:1005E00029013A01611571058105910541F4809158
:1005F000C00085FFFCCF80E38093C60042C0882402
:10060000992454011E010894211C311C8101080DFC
:10061000191DC701B601A30192010E945A05F801F4
:1006200060830894811C911CA11CB11CC701B601F8
:10063000A30192010E945A0569017A012115310531
:100640004105510519F7F4013197E20DF31D14C06E
:10065000089481089108A108B10880818A3018F4B3
:10066000982F905D02C0982F995C8091C00085FF03
:10067000FCCF9093C600319781149104A104B1047A
:1006800039F7A0960FB6F894DEBF0FBECDBFDF914D
:10069000CF911F910F91FF90EF90DF90CF90BF907F
:1006A000AF909F908F907F906F905F904F903F9012
:1006B0002F90089522E030E040E050E00E94D40204
:1006C000089528E030E040E050E00E94D402089510
:1006D00020E130E040E050E00E94D4020895EF9223
:1006E000FF920F931F937B018C0197FF0FC08091A6
:1006F000C00085FFFCCF8DE28093C6001095009569
:10070000F094E094E11CF11C011D111D2AE030E081
:1007100040E050E0C801B7010E94D4021F910F9140
:10072000FF90EF900895FC0107C08091C00085FF05
:10073000FCCF31969093C60090819923B1F708952C
:10074000CF92DF92EF92FF920F931F93CF93DF939D
:10075000E82EF62EC42ED22EC0E0D0E007E010E046
:100760006D2D7727CC2039F40C2E02C07595679536
:100770000A94E2F706C0002E02C0759567950A94A8
:10078000E2F761708E2D0E94FC0461E08F2D0E94C3
:10079000FC0460E08F2D0E94FC0421960150104063
:1007A000C830D105E9F6DF91CF911F910F91FF90ED
:1007B000EF90DF90CF9008951F920F920FB60F9297
:1007C00011248F939F93AF93BF9380919F0190913A
:1007D000A001A091A101B091A2010196A11DB11D9E
:1007E00080939F019093A001A093A101B093A201D7
:1007F000BF91AF919F918F910F900FBE0F901F905F
:10080000189560919F017091A0018091A101909134
:10081000A20127E0660F771F881F991F2A95D1F73D
:100820002DE730E040E050E00E945A05CA01B901CE
:100830000895AF92BF92CF92DF92EF92FF920F9303
:100840001F935B016C010E9401047B018C010E94DB
:1008500001046E197F09800B910B6A157B058C05CD
:100860009D05A8F31F910F91FF90EF90DF90CF901F
:10087000BF90AF900895019751F0880F991F880F8E
:10088000991F02972FB7F8940197F1F72FBF08959A
:10089000789410929F011092A0011092A1011092E1
:1008A000A20184B5826084BD84B5816084BD85B5B4
:1008B000826085BD85B5816085BDEEE6F0E0808112
:1008C00081608083E1E8F0E08081826080838081C4
:1008D00081608083E0E8F0E0808181608083E1EBEB
:1008E000F0E0808184608083E0EBF0E080818160D3
:1008F0008083ECE7F0E080818F7780838081806463
:100900008083EAE7F0E08081846080838081826078
:100910008083808181608083808180688083109261
:10092000C1000895282F3327C90183579F4FFC0129
:10093000949127583F4FF9018491882381F0E82F43
:10094000FF27E659FF4FE491FF27662329F48081B2
:1009500090958923808308958081892B80830895D1
:10096000482F5527CA018F559F4FFC012491CA017A
:1009700083579F4FFC01949147585F4FFA01349180
:10098000332319F480E090E00895222331F12330DD
:1009900021F4809180008F7705C0243031F480915C
:1009A00080008F7D8093800018C0213019F484B5B9
:1009B0008F7704C0223021F484B58F7D84BD0DC0B3
:1009C000263021F48091B0008F7705C0273029F4BC
:1009D0008091B0008F7D8093B000E32FFF27EC580B
:1009E000FF4FE491FF27808120E030E0892311F060
:1009F00021E030E0C9010895482F5527CA018F55DD
:100A00009F4FFC012491CA0183579F4FFC01949191
:100A100047585F4FFA0134913323C1F1222331F15A
:100A2000233021F4809180008F7705C0243031F489
:100A3000809180008F7D8093800018C0213019F450
:100A400084B58F7704C0223021F484B58F7D84BDB6
:100A50000DC0263021F48091B0008F7705C027307B
:100A600029F48091B0008F7D8093B000E32FFF27A1
:100A7000E159FF4FE491FF27662329F48081909587
:100A80008923808308958081892B8083089597FB33
:100A9000092E07260AD077FD04D049D006D00020C1
:100AA0001AF4709561957F4F0895F6F790958195AA
:100AB0009F4F0895A1E21A2EAA1BBB1BFD010DC07A
:100AC000AA1FBB1FEE1FFF1FA217B307E407F507FE
:100AD00020F0A21BB30BE40BF50B661F771F881FDA
:100AE000991F1A9469F760957095809590959B0170
:100AF000AC01BD01CF01089597FB092E05260ED04C
:100B000057FD04D0D7DF0AD0001C38F4509540952B
:100B1000309521953F4F4F4F5F4F0895F6F79095D1
:100B20008095709561957F4F8F4F9F4F0895AA1BB9
:100B3000BB1B51E107C0AA1FBB1FA617B70710F0C8
:100B4000A61BB70B881F991F5A95A9F780959095FA
:100B5000BC01CD010895EE0FFF1F0590F491E02D2B
:020B60000994F6
:100B620072656365697665643A200009000A000AC5
:0A0B7200000B000C000D00AA0100AA
:00000001FF
