:107000004BC0000064C0000062C0000060C000000F
:107010005EC000005CC000005AC0000058C0000004
:1070200056C0000054C0000052C00000B9C40000A7
:107030004EC000004CC000004AC0000048C0000024
:1070400046C0000044C0000042C0000040C0000034
:107050003EC000003CC000003AC0000038C0000044
:1070600036C0000034C0000032C0000030C0000054
:107070002EC000002CC000002AC0000028C0000064
:1070800026C0000024C0000022C0000020C0000074
:107090001EC000001CC0000011241FBECFEFD4E0B2
:1070A000DEBFCDBF11E0A0E0B1E0E0E9FCE702C047
:1070B00005900D92A836B107D9F711E0A8E6B1E026
:1070C00001C01D92A738B107E1F73DD3DFC598CFC6
:1070D000982F15C08091F200882371F48091E80008
:1070E0008B7F8093E80003C08EB3882351F080919A
:1070F000E80082FFF9CF02C08091F10091509923FE
:1071000049F70895209176013091750180917401BD
:107110009091730180936D0190936E01C9018093EA
:107120006F0190937001089580917101843009F48A
:107130005AC0853030F4813059F0833009F0C3C033
:107140001FC0853009F4A0C0863009F0BCC0AFC0B4
:1071500080917201823008F0B6C0D4DF8091720154
:10716000882361F480916D0190916E0123E0FC0110
:1071700020935700E89507B600FCFDCF85E008C0D6
:1071800080917201882311F0823029F4BBDF89E0FD
:10719000809301010895813009F095C020E030E02E
:1071A00040E050E0F90184918F3F81F0CA01AA27A5
:1071B000BB2780936C0130936E0120936D018AE0B0
:1071C0008093010185E08093690108952F5F3F4F0F
:1071D0004F4F5F4F2030F0E73F07F0E04F07F0E000
:1071E0005F0701F7089580917201833051F581E0C6
:1071F000809368018091770190917801892B71F0DB
:1072000080917301813009F05EC080917601909188
:10721000750190936B0180936A01089580917301C9
:10722000882361F42CE088E190E00FB6F894A895EB
:10723000809360000FBE20936000089510920001BB
:107240000895882309F03FC0809173018F3F09F0B2
:107250003AC0E0E0F0E093E085E090935700E895D5
:1072600007B600FCFDCF80935700E89507B600FCF9
:10727000FDCFE058FF4F20E7E030F20771F781E1E2
:1072800080935700E8950895E09173018091720111
:10729000882321F4F0E0EB5FFE4F05C0813099F4C4
:1072A000F0E0EE52FF4F808180937C010895809141
:1072B0007201833041F480917301882321F480911D
:1072C000740180936C0108952F923F924F925F92C8
:1072D0006F927F929F92AF92BF92CF92DF92EF9286
:1072E000FF920F931F93CF93DF938091850190912D
:1072F00086019093780180937701809179018823AA
:1073000039F08091790181508093790180917901E0
:1073100080917A01882339F080917A01815080939D
:107320007A0180917A0180918001833009F4AEC1A5
:10733000843030F4813071F0823009F0DDC10EC14B
:10734000853009F4C1C1853008F4B6C1863009F032
:10735000D3C1C9C183E080937A018091E800877F1F
:107360008093E80080916801882319F0DDDE109297
:10737000680120917701309178012115310529F4B8
:107380002AC08EB3882309F4B7C18091E80082FF38
:10739000F8CF8091F10080937101215030403093FB
:1073A000780120937701E2E7F1E00CC08091F100D1
:1073B00081932150304081E0E737F80719F4318399
:1073C000208308C08091F200882381F730937801F0
:1073D00020937701A9DE80910101853009F0BAC0C0
:1073E0008091770190917801892B21F482E080933C
:1073F0000101B0C08AE16CDE80916D018F7168DEA1
:10740000C0916F01D091700120916D0130916E019A
:1074100021968E01021B130B219780917201882304
:1074200009F093C0180136942794C901A0916C010A
:10743000B0E09C01AD0162E0E62EF12C012D112D92
:10744000E20EF31E041F151F59016A0190E09924F2
:107450009394B5E0A3E048C08091F200882371F4D2
:107460008091E8008B7F8093E80004C08EB388236E
:1074700009F442C18091E80082FFF8CF0894210806
:1074800031088091F100682F8091F100782FF5018B
:107490000B0190925700E89511249F5F903419F0EA
:1074A00021143104A1F4F901B0935700E89507B60F
:1074B00000FCFDCF2114310451F0F701A0935700D7
:1074C000E89507B600FCFDCFA801970190E042E0E7
:1074D000442E512C612C712CE40CF51C061D171D3B
:1074E000A40CB51CC61CD71C2114310409F0B4CF60
:1074F000D0936E01C0936D0181E180935700E895B0
:1075000027C08091F200882371F48091E8008B7F7E
:107510008093E80004C08EB3882309F4EDC0809105
:10752000E80082FFF8CF6091F10080916D019091A9
:107530006E019ED380916D0190916E0101969093A2
:107540006E0180936D010150104001151105C9F6BF
:1075500080E1BEDD8091E8008B7FC2C08091E800B1
:10756000877F8093E80083E08093790104C08EB325
:10757000882309F4C1C08091E80080FFF8CF809192
:107580000101893091F08A3069F480917201813073
:1075900049F480916D0190916E018093F100909378
:1075A000F1009BC080917C0196C060916F01709149
:1075B000700120916D0130916E016F5F7F4F7B01F3
:1075C000E21AF30A6150704080917201882389F5B4
:1075D000870116950795C901A0916C01B0E09C0147
:1075E000AD011FC08091F200803271F48091E800FB
:1075F0008E7F8093E80004C08EB3882309F47CC09A
:107600008091E80080FFF8CFF901859194918093F3
:10761000F1009093F100015010402E5F3F4F4F4F0B
:107620005F4F01151105F1F670936E0160936D01C6
:1076300029C0823039F523C08091F200803271F484
:107640008091E8008E7F8093E80004C08EB3882389
:1076500009F452C08091E80080FFF8CF00916D01DD
:1076600010916E01C801FCD28093F1000F5F1F4F93
:1076700010936E0100936D010894E108F108E11484
:10768000F104D1F682E08093010127C08091E800E7
:10769000877F8093E800809169018093F1001092C8
:1076A000F1001092F1001092F1008091010180939D
:1076B000F1001092F10011C08091E800877F809363
:1076C000E8001092690117C08091E800877F8093DD
:1076D000E800809101018093F1008091E8008E7FA5
:1076E0008093E80008C08091E800877F8093E800DD
:1076F00082E08093010181D0DF91CF911F910F91A2
:10770000FF90EF90DF90CF90BF90AF909F907F90D1
:107710006F905F904F903F902F90089525D181E01A
:1077200085BF15BE089584B7877F84BF88E10FB6F3
:10773000F89480936000109260000FBE81E085BFD6
:1077400082E085BF0CC1EFDF789401C080D28091C8
:1077500000018823D9F7809168018823B9F7DEDF1B
:10776000E0916A01F0916B010995FA01923071F094
:10777000933089F0913029F488E091E022E130E003
:1077800019C080E090E020E030E014C08AE191E090
:107790002BE130E00FC0882339F480913501282F88
:1077A00030E085E391E006C080913901282F30E078
:1077B00089E391E091838083C90108958091EB0072
:1077C00081608093EB001092ED006093EC00409399
:1077D000ED008091EE00881F8827881F0895109281
:1077E000F4001092F0001092E8001092ED00EBEE21
:1077F000F0E080818E7F8083089580917F018823CF
:107800008CF403C08EB38823B1F08091E80082FF2E
:10781000F9CF8091E8008B7F8093E80008958EB3C4
:10782000882349F08091E80080FFF9CF8091E8003B
:107830008E7F8093E80008959C01409185015091CE
:1078400086014617570718F4F90120E038C0611582
:10785000710511F0AB01F8CF8091E8008E7F809325
:10786000E80040E050E0F0CF8091E80083FF02C0E4
:1078700081E008958091E80082FD2DC08EB38823B9
:1078800081F18EB3853079F18091E80080FF17C0D7
:107890009091F20006C081918093F10041505040D8
:1078A0009F5F4115510511F09032A8F320E090320E
:1078B00009F421E08091E8008E7F8093E800411573
:1078C000510591F6222381F606C08EB3882349F034
:1078D0008EB3853041F08091E80082FFF6CF80E0E2
:1078E000089582E0089583E0089554D056D01EBADA
:1078F00010927D0184E089BD89B5826089BD09B49B
:1079000000FEFDCF8091D800982F9F779093D800EC
:1079100080688093D800809163008E7F809363009D
:107920008091D8008F7D8093D8008091E0008E7F79
:107930008093E0008091E1008E7F8093E100809150
:10794000E20081608093E2008091E100877F809374
:10795000E1008091E20088608093E2000895C5DF35
:1079600081E080937E010895C0DFE0EEF0E0808149
:1079700081608083E8EDF0E080818F7780830AD09A
:107980000CD019BCE3E6F0E0808181608083109226
:107990007E0108951092E20008951092E10008958A
:1079A0001F920F920FB60F9211242F933F934F9374
:1079B0005F936F937F938F939F93AF93BF93EF9357
:1079C000FF938091E10080FF1BC08091E20080FF67
:1079D00017C08091E1008E7F8093E1008091E200EA
:1079E0008E7F8093E2008091E20080618093E200CC
:1079F0008091D80080628093D80019BC1EBA26D12D
:107A00008091E10084FF29C08091E20084FF25C0BD
:107A100084E089BD89B5826089BD09B400FEFDCFCF
:107A20008091D8008F7D8093D8008091E1008F7E77
:107A30008093E1008091E2008F7E8093E20080914C
:107A4000E20081608093E20080917D01882311F43F
:107A500081E001C084E08EBBF9D08091E10083FF1A
:107A600022C08091E20083FF1EC08091E100877FE9
:107A70008093E10082E08EBB10927D018091E10055
:107A80008E7F8093E1008091E2008E7F8093E20000
:107A90008091E20080618093E200A1DE80E060E0FE
:107AA00042E28CDED3D08091E10082FF0AC0809157
:107AB000E20082FF06C08091E1008B7F8093E100AD
:107AC000C5D0FF91EF91BF91AF919F918F917F9121
:107AD0006F915F914F913F912F910F900FBE0F903B
:107AE0001F9018951F93DF93CF9300D0CDB7DEB7CB
:107AF000EFE7F1E08091F100819381E0E738F8074A
:107B0000C9F790917F0180918001853011F1863015
:107B100040F48130B9F0813070F0833009F081C0D9
:107B200011C0883009F453C0893009F462C086302E
:107B300009F077C02DC0903809F474C0923809F06C
:107B400070C070C0992309F46DC0923009F069C00B
:107B500069C0992309F065C0109181018091E80006
:107B6000877F8093E80049DE04C08EB3882309F440
:107B700059C08091E80080FFF8CF812F8F7711F4F2
:107B800092E001C093E09EBB80688093E3004AC00E
:107B90009058923008F045C0809181019091820107
:107BA00060918301AE014F5F5F4FDFDDBC01009745
:107BB000C9F18091E800877F8093E80089819A81EC
:107BC0003BDE8091E8008B7F8093E8002BC09038EB
:107BD00041F58091E800877F8093E80080917D01E6
:107BE0008093F1008091E8008E7F8093E80005DEAD
:107BF00019C09923B1F490918101923098F4809149
:107C0000E800877F8093E80090937D01F6DD809106
:107C10007D01882311F483E001C084E08EBB16D07F
:107C200001C052DB8091E80083FF0AC08091EB0025
:107C300080628093EB008091E800877F8093E8006A
:107C40000F900F90CF91DF911F91089508958EB3FB
:107C5000882329F08091E80083FF01C043CF089575
:107C6000F999FECF92BD81BDF89A992780B5089504
:107C7000262FF999FECF1FBA92BD81BD20BD0FB648
:107C8000F894FA9AF99A0FBE01960895F894FFCFE6
:107C900001021E958A20DCFB120110010000002069
:107CA000EB03F02F00000001000109021B0001019D
:107CB0000080320904000000FE01020009210300D7
:107CC00000000C0001040309042C0341007200644D
:107CD00000750069006E006F0020004D00650067B0
:107CE00000610020003200350036003000200044E2
:087CF0000046005500000000F1
:040000030000700089
:00000001FF
