:020000023000CC
:10E000000D9472F00D949CF00D949CF00D949CF086
:10E010000D949CF00D949CF00D949CF00D949CF04C
:10E020000D949CF00D949CF00D949CF00D949CF03C
:10E030000D949CF00D949CF00D949CF00D949CF02C
:10E040000D949CF00D949CF00D949CF00D949CF01C
:10E050000D949CF00D949CF00D949CF00D949CF00C
:10E060000D949CF00D949CF00D949CF00D949CF0FC
:10E070000D949CF00D949CF00D949CF00D949CF0EC
:10E080000D949CF00D949CF00D949CF00D949CF0DC
:10E090000D949CF00D949CF00D949CF00D949CF0CC
:10E0A0000D949CF00D949CF00D949CF00D949CF0BC
:10E0B0000D949CF00D949CF00D949CF00D949CF0AC
:10E0C0000D949CF00D949CF00D949CF00D949CF09C
:10E0D0000D949CF00D949CF00D949CF00D949CF08C
:10E0E0000D949CF011241FBECFEFD1E2DEBFCDBF57
:10E0F00001E00CBF12E0A0E0B2E0EAECF9EE03E0D0
:10E100000BBF02C007900D92A030B107D9F71BBE1C
:10E1100012E0A0E0B2E001C01D92A230B107E1F729
:10E120000F94ACF00D94E3F401E20EBF0FEF0DBFBE
:10E1300011241FBE0D94ACF00D9400F020E030E0EF
:10E1400040ED57E005C0FA013197F1F72F5F3F4FDF
:10E1500028173907C0F308952F923F924F925F928C
:10E160006F927F928F929F92AF92BF92CF92DF92E7
:10E17000EF92FF920F931F93DF93CF93CDB7DEB74C
:10E18000CC52D1400FB6F894DEBF0FBECDBF94B7CE
:10E19000F894A89514BE8091600088618093600017
:10E1A00010926000789493FF03C0EE27FF27099434
:10E1B0008091C00082608093C00080E18093C400A1
:10E1C00088E18093C100000081B1886381B982B188
:10E1D000886382B901990BC0EE24FF248701F4E023
:10E1E000AF2EB12CE8E09E2ECC24DD2465C020E0CB
:10E1F00030E040ED57E0139880E090E0FA0131976D
:10E20000F1F7019684369105C9F7139A80E090E002
:10E21000FA013197F1F7019684369105C9F72F5F1E
:10E220003F4F2230310539F720E030E040ED57E034
:10E23000149880E090E0FA013197F1F70196843666
:10E240009105C9F7149A2F5F3F4F2230310581F7AE
:10E2500080E090E020ED37E0F9013197F1F7019689
:10E2600041E0843F9407C1F7EE27FF270994FFCFD1
:10E27000C5010197F1F70894E11CF11C011D111D66
:10E2800051E9E5165FE5F50651E0050750E0150791
:10E2900018F071E0C72ED12CC801B70128E53BE189
:10E2A00040E050E00F94C1F46115710581059105BE
:10E2B00019F482B1892582B98091C00087FD03C01D
:10E2C000C114D104A9F2B6016F5F7F4FCE5DDE4F5E
:10E2D00079836883C252D140CE5DDE4F88819981B7
:10E2E000C252D140019709F0F3C222243324A0E0A6
:10E2F000CC5DDE4F1882C452D140C25EDE4F188220
:10E3000019821A821B82CE51D1408824992454014B
:10E3100044245524320120E030E040E050E04BBF7F
:10E32000F90147915691C55DDE4F59834883CB5221
:10E33000D140CAC2C25EDE4F288139814A815B81E9
:10E34000CE51D140213231054105510508F0C0C2FE
:10E35000CE5DDE4F48815981C252D14041305105D6
:10E3600009F53091C600CE5DDE4F19821882C25287
:10E37000D14022C04F5F5F4F6F4F7F4F413082E1EE
:10E3800058078AE7680780E0780780F0C55DDE4FB0
:10E39000E881F981CB52D140EF5FFF4F19F0EE27B2
:10E3A000FF27099440E050E060E070E08091C000F9
:10E3B00087FFE0CF3091C600933009F441C094301C
:10E3C00028F4913031F19230B0F509C0953009F45C
:10E3D00046C09530E0F1963009F057C052C03B314D
:10E3E00019F491E0ABE1A6CFC25EDE4F48815981BE
:10E3F0006A817B81CE51D1404F5F5F4F6F4F7F4F1E
:10E40000C25EDE4F488359836A837B83CE51D140FD
:10E4100091CF313041F0CC5DDE4F5881C452D140B4
:10E42000351709F0ACC2A327CC5DDE4F3883C45248
:10E43000D14092E07FCF132F00E0A32793E07ACF63
:10E44000832F90E0082B192BA32794E073CF3E3045
:10E4500009F095C2A32795E0222433246BCFE1E095
:10E46000F0E0EC0FFD1FE20DF31D30830894211C3A
:10E47000311CA3272016310609F05CCF810196E0FC
:10E4800059CF3A1709F07BC23EC2973009F052CFFC
:10E490003AC28D81803311F090E00AC08F818823C9
:10E4A00011F49EE105C0813011F091E001C098E9BE
:10E4B0001A821B828D818C831D829E831F8247E07E
:10E4C00050E086C11A8288E08B8381E48C8386E5E4
:10E4D0008D8382E58E8389E48F8383E5888780E559
:10E4E00089878FE58A8782E38B874BE050E070C194
:10E4F0008A81813941F0823941F0803911F48FE00D
:10E5000005C080E003C082E001C08AE01A828B83EC
:10E5100046C031E01A8242E050E05BC18D81882321
:10E5200011F48EE128C0813011F081E024C088E927
:10E5300022C01A8269E0E1E0F0E060935700849124
:10E540001BC08B81803589F48C81883039F479E067
:10E55000E2E0F0E07093570084910DC099E0E0E0B4
:10E56000F0E090935700849106C0A9E0E3E0F0E06A
:10E57000A093570084911A828B831C8244E050E060
:10E5800027C18D81836CB9E0E1E0F0E0082EB09303
:10E590005700E89507B600FCFDCF1A821B8243E0C6
:10E5A00050E016C11A824424552432010FC18A81D9
:10E5B00090E0A0E0B0E0B82EAA24992488248B81B2
:10E5C00090E0A0E0B0E0DC0199278827882A992A0A
:10E5D000AA2ABB2A8D8190E0A0E0B0E0882A992A7F
:10E5E000AA2ABB2A8C8190E0A0E0B0E0BA2FA92F24
:10E5F000982F8827882A992AAA2ABB2A880C991C2E
:10E60000AA1CBB1C1A82E2C09A813B81833119F09B
:10E61000B501A40169C0E0E04E16E0EC5E06E3E05F
:10E620006E06E0E07E0690F423E0F20160925B006B
:10E6300020935700E89507B600FCFDCF40E051E07D
:10E6400060E070E0440E551E661E771ECA5DDE4F08
:10E650009883C652D140CB5DDE4F1882C552D1405F
:10E66000032F10E0CB5DDE4F68817981C552D14028
:10E67000062B172BB501A401DE011B968C91119678
:10E680002C9111971296C85DDE4F2883C852D14055
:10E69000C95DDE4F1882C752D14090E0C95DDE4FA0
:10E6A000E881F981C752D1408E2B9F2B21E00C01CC
:10E6B000FA0160935B0020935700E89511244E5FA8
:10E6C0005F4F6F4F7F4F02501040C1F635E0F401AD
:10E6D000A0925B0030935700E89507B600FCFDCF91
:10E6E00081E180935700E8951A824A015B016EC070
:10E6F0004A81C65DDE4F4883CA52D140C75DDE4FB6
:10E700001882C952D1408B81C82EDD24C75DDE4FEF
:10E7100068817981C952D140C62AD72A1A82898153
:10E720008431F1F4A60123E0E22EF12CEC0EFD1E63
:10E73000ABBEF40187919691D7018C9311969C936F
:10E74000E2E0F0E0EE0EFF1E62E070E080E090E0BC
:10E75000860E971EA81EB91E4250504049F72EC083
:10E76000B501A40193E0E92EF12CEC0EFD1E0894F6
:10E77000C108D108860120E030E00894C11CD11CFA
:10E780000F5F1F4F2F4F3F4F080D191D2A1D3B1DB7
:10E7900041BDBB27A72F962F852F82BD4F5F5F4FAF
:10E7A0006F4F7F4FF89A80B5D7018D937D01401749
:10E7B00051076207730761F74A015B01A6014D5FCC
:10E7C0005F4FF701108204C080EC8A8342E050E082
:10E7D00030E0FBE1F093C6008091C00086FFFCCFE3
:10E7E0008091C00080648093C000CC5DDE4F2881A2
:10E7F000C452D1402093C6008091C00086FFFCCF58
:10E800008091C00080648093C000652F5093C60043
:10E810008091C00086FFFCCF8091C000806480930F
:10E82000C000942F4093C6008091C00086FFFCCFAB
:10E830008091C00080648093C0008EE08093C60009
:10E840008091C00086FFFCCF8091C00080648093DF
:10E85000C000A5E1CC5DDE4F7881C452D140A7272E
:10E86000A927A627FE01319610C090819093C6007B
:10E870008091C00086FFFCCF31968091C0008064FB
:10E880008093C000A927415050404115510569F7B8
:10E89000A093C6008091C00086FFFCCF8091C0008D
:10E8A00080648093C00082B198E0892782B93323C5
:10E8B00079F4CC5DDE4F8881C452D1408F5FCC5D4E
:10E8C000DE4F8883C452D14090E000E010E032CDAA
:10E8D0000B98139880E090E020ED37E0F901319734
:10E8E000F1F7019684369105C9F700008091C000C8
:10E8F0008D7F8093C00081E180935700E895EE27DB
:10E90000FF270994FFCF8981833109F47DCE8431BB
:10E91000C0F4863009F44BCE873048F4823069F178
:10E92000833009F4E5CD813009F04ECFCBCD813174
:10E9300009F4EFCD823108F035CE803109F044CFB3
:10E940001CC0883109F4FDCD893150F4853109F4BA
:10E950005BCE853108F4CCCE863109F035CFC8CEF8
:10E960008A3109F4E6CD8A3108F40BCE8B3109F4F3
:10E97000D5CD8D3109F028CF8CCD30E0CBCD90E0D6
:10E98000D9CCA1E21A2EAA1BBB1BFD010DC0AA1FE8
:10E99000BB1FEE1FFF1FA217B307E407F50720F008
:10E9A000A21BB30BE40BF50B661F771F881F991F83
:10E9B0001A9469F760957095809590959B01AC01CC
:0AE9C000BD01CF010895F894FFCFC8
:040000033000E000E9
:00000001FF
