:10000000A2C00000BCC00000BAC00000B8C0000020
:10001000B6C00000B4C00000B2C00000B0C0000014
:10002000AEC000005DC10000AAC000004AC60000CA
:100030000EC60000FFC00000A2C00000FEC100000C
:100040009EC000009CC000009AC0000098C0000044
:1000500096C0000094C0000092C000000DC30000D4
:100060008EC000008CC000008AC0000088C0000064
:1000700086C0000084C0000082C0000080C0000074
:100080007EC000007CC000007AC0000078C0000084
:1000900076C0000074C000001201100102000008C8
:1000A0004123100001000102DC0109023E000201AF
:1000B00000C0C8090400000102020100052400017B
:1000C0001004240206052406000107058203080027
:1000D000FF09040100020A000000070504024000B5
:1000E00001070583024000010403090432034100B3
:1000F00072006400750069006E006F002000280027
:100100007700770077002E006100720064007500B0
:1001100069006E006F002E0063006300290000007C
:100120002403410072006400750069006E006F00D6
:1001300020004D006500670061002000320035009E
:1001400036003000000011241FBECFEFD4E0DEBF28
:10015000CDBF11E0A0E0B1E0E0EBF3E102C005901B
:100160000D92AE36B107D9F712E0AEE6B1E001C0AC
:100170001D92A03BB107E1F7E0D20C94D60940CF25
:100180009C01DC01AE57BF4FED91FC91119741915D
:100190001196FC93EE9380589F4FE817F90711F4DE
:1001A0002D933C939FB7F894F901EC57FF4F808152
:1001B000815080839FBF842F0895429A81E080936D
:1001C000840158980895429810928401589A08958D
:1001D000809170018823E9F42FB7F8944698109223
:1001E0008500109284008FEF9FEF90938900809399
:1001F000880080E48093800082E080938100809179
:100200006F00826080936F0081E0809370012FBF48
:100210005D9808959FB7F894EFE6F0E080818D7FB8
:1002200080831092800010928100109270019FBF15
:100230005D9A08951F920F920FB60F9211242F937B
:100240003F934F935F936F937F938F939F93AF935E
:10025000BF93EF93FF9380917001882329F0ADE065
:10026000B1E020E030E005C0809171018823B9F74A
:100270000EC08D919D91F901EE0FFF1FEF5CFE4FB7
:10028000918380832F5F3F4F2231310591F7809119
:100290006E01823021F480915501882321F08091F4
:1002A0007101882319F094DF1092710181E080932D
:1002B000550110926F018091700181115C98FF913E
:1002C000EF91BF91AF919F918F917F916F915F91CE
:1002D0004F913F912F910F900FBE0F901F90189547
:1002E0001F920F920FB60F921124CF92DF92EF92CE
:1002F000FF920F931F932F933F934F935F936F93AF
:100300007F938F939F93AF93BF93CF93DF93EF939D
:10031000FF93E0908400F090850080916E01823020
:10032000C9F480917001882309F074DF189B02C022
:10033000469A01C04698A895109255018091730184
:100340008F5F80937301813808F45EC04D9A1092DC
:1003500073015AC0109173018091720160EEC62E34
:100360006CEFD62ECE0CDF1C03B1482F4027C4E71C
:10037000D1E031E020E0832F842319F1832F802303
:1003800019F0F982E8821DC088819981B601681B45
:10039000790BCB017DE089349707C8F453E0883EA0
:1003A0009507A8F0A895E22FEE0FEF5FF0E0DF01D0
:1003B000A857BE4F1C92EE0FFF1FEF5CFE4F9183BC
:1003C00080832F5F2296283049F0330FD4CF80915D
:1003D0006F018F5F80936F0110E0F3CF1092550192
:1003E00080917001882309F4F3DE1F5F113410F04F
:1003F0004C9A10E083B1081711F0802FB5CF1093FD
:10040000730100937201D89AFF91EF91DF91CF9120
:10041000BF91AF919F918F917F916F915F914F911C
:100420003F912F911F910F91FF90EF90DF90CF9010
:100430000F900FBE0F901F9018951F920F920FB63E
:100440000F9211242F933F934F938F939F93AF93CA
:10045000BF93EF93FF9340916C01842F90E0DC01F8
:10046000A857BE4F2C91FC01EE0FFF1F293278F0E8
:100470008091880090918900E35FFE4F2081318157
:10048000820F931F909389008093880011C0809100
:10049000880090918900EF5CFE4F20813181280F08
:1004A000391F30938900209388008C918F5F8C9343
:1004B000842F8F5F80936C01823118F010926C0151
:1004C0004D9AFF91EF91BF91AF919F918F914F9175
:1004D0003F912F910F900FBE0F901F90189504B66B
:1004E00000FC0BC004B601FC08C004B602FE05C047
:1004F00014BE81E08093710101C014BE3A9A8091CC
:100500006E01882301F522982A9A219A299885E379
:10051000982F9A95F1F793B196959695909591703D
:10052000299A8A95F1F71A999F5F299885E38A9508
:10053000F1F71A9905C0923019F490936E0103C037
:1005400081E080936E0114B885B18FEF85B9509A20
:1005500080918401882311F0589801C0589A8091A5
:100560006E01813019F48FEF80936B0080916E01E2
:10057000823019F481E080936B0080916800816083
:10058000809368003E9A88E10FB6F89480936000EB
:10059000109260000FBEA8958091600088618093E2
:1005A000600084E4809360000895DF92EF92FF92F0
:1005B0000F931F93FC018489813019F0823021F45C
:1005C00005C040E3D42E04C0DD2402C030E2D32EA7
:1005D0008389823011F488E0D82A8589873031F008
:1005E000883031F0863031F482E003C084E001C00D
:1005F00086E0D82A1092C9001092C8001092CA0052
:10060000E784F0880189128980E0E81681EEF80617
:1006100080E0080780E0180719F420E130E00FC0FF
:10062000C801B701969587957795679560587B4780
:10063000814E9F4FA801970197D6215030403093AB
:10064000CD002093CC00D092CA0080E0E81681EE65
:10065000F80680E0080780E0180711F082E001C08A
:1006600080E08093C80088E98093C9001F910F91B2
:10067000FF90EF90DF9008951F920F920FB60F92A8
:1006800011242F938F939F93EF93FF939091CE001C
:100690008EB38430F1F4E0911A02F0911B02908342
:1006A000E0911A02F0911B02CF01019690931B0278
:1006B00080931A028A51924021F48AE991E0928350
:1006C00081839FB7F89480911E028F5F80931E02F2
:1006D0009FBFFF91EF919F918F912F910F900FBE30
:1006E0000F901F901895FC01858580FF02C05F98D0
:1006F00008955F9A089586E591E0CCC586E591E07E
:100700007FC587E690E09093CD008093CC0086E093
:100710008093CA001092C80088E18093C900539A60
:100720005A9A8AB180638AB98BB180638BB984D2BB
:1007300084E085BD5F9A579A08950F931F93CF93D6
:10074000DF93CDDEDEDF2FB7F8948FE192E0909358
:10075000A00280939F029093A2028093A1022FBFD8
:100760002FB7F8948AE991E090931B0280931A02C4
:1007700090931D0280931C022FBF7894CFE1D2E0AA
:1007800003E08FB7F8949091A3028FBF903809F1DE
:1007900086E591E0ABD497FD1CC0E0919F02F091FB
:1007A000A0028083E0919F02F091A002CF01019608
:1007B0009093A00280939F028F59924011F4D283AC
:1007C000C1839FB7F8948091A3028F5F8093A302A7
:1007D0009FBF8FB7F89410911E028FBFA89902C0D7
:1007E000113678F1A89A80911E02882361F05D98F5
:1007F0000093850108C08AE991E0C2DC682F86E594
:1008000091E0DAD411501123B1F78091850188234A
:1008100051F08091850181508093850180918501FF
:10082000882309F45D9A80918601882351F0809194
:10083000860181508093860180918601882309F486
:100840005C9A8FB7F8949091A3028FBF992369F0B7
:100850008FE192E095DC982F8091C80085FFFCCF56
:100860009093CE005C980093860186E591E095D444
:100870002AD487CFDA01923049F0933061F0913079
:10088000F9F4E8E9F0E022E130E01EC0EAEAF0E045
:100890002EE330E019C0813049F0813018F0823009
:1008A00079F408C0E8EEF0E0849107C0ECEEF0E0E7
:1008B000849103C0E0E2F1E08491282F30E004C08D
:1008C000E0E0F0E020E030E0ED93FC93C901089512
:1008D00028E030E040E003C04F5F220F331F2817AD
:1008E0003907D0F3842F8295807F08958093E900A3
:1008F0008091EB0081608093EB001092ED0060939B
:10090000EC004093ED008091EE00881F8827881F3F
:1009100008951092F40090E09093E9001092F00096
:100920001092E8001092ED008091EB008E7F809392
:10093000EB009F5F953081F708958091A80288238E
:100940008CF403C08EB38823B1F08091E80082FF5D
:10095000F9CF8091E8008B778093E80008958EB3FB
:10096000882349F08091E80080FFF9CF8091E8006A
:100970008E778093E800089594E68091EC0080FFE4
:1009800005C08091E80080FF05C023C08091E80089
:1009900082FD1FC08EB3882311F482E008958EB3C8
:1009A000853011F483E008958091EB0085FF02C04B
:1009B00081E008958091E10082FFDFCF8091E10026
:1009C0008B7F8093E100992311F484E00895915086
:1009D000D4CF80E008959C014091AE025091AF02C7
:1009E0004617570718F4F90120E038C06115710562
:1009F00011F0AB01F8CF8091E8008E778093E8008A
:100A000040E050E0F0CF8091E80083FF02C081E039
:100A100008958091E80082FD2DC08EB3882381F176
:100A20008EB3853079F18091E80080FF17C09091F6
:100A3000F20006C081918093F100415050409F5FC9
:100A40004115510511F09830A8F320E0983009F4D1
:100A500021E08091E8008E778093E80041155105F0
:100A600091F6222381F606C08EB3882349F08EB317
:100A7000853041F08091E80082FFF6CF80E0089554
:100A800082E0089583E008959C014091AE02509168
:100A9000AF024617570710F490E03BC0611571058F
:100AA00011F0AB01F9CF8091E8008E778093E800D8
:100AB00040E050E0F1CF8091E80083FF02C081E088
:100AC00008958091E80082FD30C08EB3882399F1AB
:100AD0008EB3853091F18091E80080FF1AC080913B
:100AE000F20009C0F9012F5F3F4FE491E093F1005C
:100AF000415050408F5F4115510511F0883090F3FF
:100B000090E0883009F491E08091E8008E7780933E
:100B1000E8004115510579F6992369F606C08EB3B0
:100B2000882349F08EB3853041F08091E80082FF40
:100B3000F6CF80E0089582E0089583E008959C0157
:100B40006115710529F48091E8008B778093E800A6
:100B5000F90120C08091E80083FF02C081E0089580
:100B60008EB3882339F18EB3853031F18091E8005E
:100B700082FFF0CF06C08091F100819361507040F8
:100B800021F08091F2008823B1F78091E8008B7703
:100B90008093E80061157105E9F606C08EB38823DD
:100BA00049F08EB3853041F08091E80080FFF6CFA8
:100BB00080E0089582E0089583E0089542D044D013
:100BC0001EBA1092A6021092A5021092A40284E00E
:100BD00089BD89B5826089BD09B400FEFDCF8091D1
:100BE000D800982F9F779093D80080688093D80082
:100BF000809163008E7F809363008091D8008F7D09
:100C00008093D8008091E0008E7F8093E0008091F7
:100C1000E1008E7F8093E1008091E200816080930B
:100C2000E2008091E100877F8093E1008091E20003
:100C300088608093E2000895C1DF81E08093A7027D
:100C400008951092E20008951092E10008951F9215
:100C50000F920FB60F9211241F932F933F934F9330
:100C60005F936F937F938F939F93AF93BF93EF9314
:100C7000FF93E9EEF0E0108117701082E0EFF0E0F2
:100C80008081877F80837894C3D0F894A9EEB0E008
:100C90001C92E0EFF0E08081886080831C93FF91DC
:100CA000EF91BF91AF919F918F917F916F915F91E4
:100CB0004F913F912F911F910F900FBE0F901F905A
:100CC00018951F920F920FB60F9211242F933F93F6
:100CD0004F935F936F937F938F939F93AF93BF9344
:100CE000EF93FF938091E10080FF1BC08091E200B1
:100CF00080FF17C08091E1008E7F8093E10080919A
:100D0000E2008E7F8093E2008091E2008061809318
:100D1000E2008091D80080628093D80019BC1EBA8E
:100D200052DA8091E10084FF29C08091E20084FFC3
:100D300025C084E089BD89B5826089BD09B400FE03
:100D4000FDCF8091D8008F7D8093D8008091E10005
:100D50008F7E8093E1008091E2008F7E8093E2009D
:100D60008091E20081608093E2008091A602882356
:100D700011F481E001C084E08EBB1FDA8091E100B4
:100D800083FF27C08091E20083FF23C08091E100B0
:100D9000877F8093E10082E08EBB1092A602809153
:100DA000E1008E7F8093E1008091E2008E7F80934E
:100DB000E2008091E20080618093E200AADD80E0A1
:100DC00060E042E093DD8091F00088608093F00065
:100DD00079D18091E10082FF0AC08091E20082FF18
:100DE00006C08091E1008B7F8093E1006BD1FF9181
:100DF000EF91BF91AF919F918F917F916F915F9193
:100E00004F913F912F910F900FBE0F901F9018950B
:100E10001F93DF93CF93CDB7DEB7AC970FB6F8949F
:100E2000DEBF0FBECDBFE8EAF2E08091F100819312
:100E300022E0E03BF207C9F78091A8023091A902B5
:100E4000353009F487C0363040F43130C9F13130E3
:100E500070F0333009F01DC133C0383009F4EFC0F1
:100E6000393009F4FEC0363009F013C192C0803821
:100E700021F0823809F00DC108C09091A402809140
:100E8000A502882399F0926011C08091AC0287700E
:100E90008093E9008091EB0090E025E0969587959E
:100EA0002A95E1F7982F91701092E9008091E8005F
:100EB000877F8093E8009093F1001092F100CAC000
:100EC000882319F0823009F0E4C090E08F719070AF
:100ED000009721F0029709F0DDC00CC08091AA02B2
:100EE000813009F0D7C01092A502333069F58093A4
:100EF000A5022AC08091AA02882331F52091AC0274
:100F0000277009F4C7C02093E9008091EB0080FFAF
:100F1000C1C0333021F48091EB00806213C0809116
:100F2000EB0080618093EB0081E090E002C0880FCD
:100F3000991F2A95E2F78093EA001092EA008091C7
:100F4000EB0088608093EB001092E9008091E8004C
:100F5000877F83C0882309F09CC01091AA028091EA
:100F6000E800877F8093E800E8DC04C08EB3882324
:100F700009F490C08091E80080FFF8CF812F8F772F
:100F800011F492E001C093E09EBB80688093E3007F
:100F900081C08058823008F07CC08091AA02909174
:100FA000AB0223E08C3D920799F55FB7F894DE0120
:100FB00015964EE020E030E061E2E42FF0E060932F
:100FC0005700849120FF03C082958F704F5F982F48
:100FD0009F70892F805D8A3308F0895F8C9311960A
:100FE0001C9211972F5F3F4F12962431310529F73C
:100FF0005FBF8AE28B8383E08C838091E800877FE8
:101000008093E800CE0103966AE270E0E4DC11C050
:101010006091AC02AE014F5F5F4F2CDCBC010097CA
:10102000C9F18091E800877F8093E80089819A81E7
:101030002BDD8091E8008B778093E8002BC080380F
:1010400041F58091E800877F8093E8008091A602B7
:101050008093F1008091E8008E778093E8006DDC4A
:1010600019C08823B1F49091AA02923098F480912B
:10107000E800877F8093E8009093A6025EDC809171
:10108000A602882311F483E001C084E08EBB36DB26
:1010900001C031DB8091E80083FF0AC08091EB0042
:1010A00080628093EB008091E800877F8093E80066
:1010B000AC960FB6F894DEBF0FBECDBFCF91DF91D7
:1010C0001F91089508951F938EB3882361F01091A6
:1010D000E9001092E9008091E80083FF01C098DEEA
:1010E00017701093E9001F9108950895FC018EB3C5
:1010F000843021F587859089A189B2890097A1055F
:10110000B105E1F085818093E9008091E80082FFDC
:1011100015C08091F200882319F42FEF3FEF04C02F
:101120008091F100282F30E08091F200882341F473
:101130008091E8008B778093E80002C02FEF3FEFAB
:10114000C9010895FC018EB3843011F5878590891B
:10115000A189B2890097A105B105D1F08181809361
:10116000E9008091F2008823A9F09091E800809135
:10117000E8008E778093E80095FD0CC0FDDB982F8A
:10118000882349F48091E8008E778093E80003C0BB
:1011900092E001C090E0892F0895FC018EB3843065
:1011A00051F487859089A189B2890097A105B1057D
:1011B00011F0CF01C7CF08951F93FC01162F8EB3F6
:1011C0008430D9F487859089A189B2890097A105D7
:1011D000B10599F081818093E9008091E80085FD57
:1011E00008C08091E8008E778093E800C5DB8823F3
:1011F00029F41093F10080E001C082E01F9108956E
:101200000F931F93CF93DF93EC010D96FC0189E0C0
:10121000DF011D928A95E9F72A813B8109818C8142
:10122000882311F410E001C014E0C90151DB182B30
:101230001260802F61E8412F59DB882329F12E812C
:101240003F810D818885882311F410E001C014E0EE
:10125000C9013EDB182B1260802F60E8412F46DB6E
:10126000882391F02A853B8509858C85882311F494
:1012700010E001C014E0C9012BDB182B1260802F95
:1012800061EC412F33DB01C080E0DF91CF911F91F2
:101290000F910895CF93DF93EC018091E80083FFD5
:1012A00060C0888190E02091AC023091AD02281797
:1012B000390709F056C08091A902813261F082326B
:1012C00020F4803209F04DC019C0823269F18332B6
:1012D00009F047C038C08091A802813A09F041C0A6
:1012E0008091E800877F8093E800CE010F9667E049
:1012F00070E071DB8091E8008B7713C08091A802C9
:10130000813279F58091E800877F8093E800CE01F3
:101310000F9667E070E013DCCE0147D98091E800BA
:101320008E778093E8001DC08091A8028132C9F4B5
:101330008091E800877F8093E8008091AA028D87E2
:10134000CE01D1D90DC08091A802813251F4809193
:10135000E800877F8093E800CE016091AA02C5DE95
:10136000ECDADF91CF910895A1E21A2EAA1BBB1BE4
:10137000FD010DC0AA1FBB1FEE1FFF1FA217B30761
:10138000E407F50720F0A21BB30BE40BF50B661F77
:10139000771F881F991F1A9469F76095709580953B
:1013A00090959B01AC01BD01CF010895F894FFCF4A
:1013B0004172647550504D76322E332E3020039892
:1013C00008200398082003E8032003980820030658
:1013D0000920039808200398082003980820030890
:1013E00052200398082003980820037805200398CA
:1013F0000820030609200398082003980820039872
:1014000008200308520100034000000440000002CD
:0E1410000800000000000000000000001100B5
:00000001FF
