:100000000C945B000C9481000C9481000C94810092
:100010000C9481000C9481000C9481000C9481005C
:100020000C9481000C9481000C9481000C9481004C
:100030000C9481000C9481000C9481000C9481003C
:100040000C94A3030C9481000C9489020C948100FD
:100050000C9481000C9481000C9481000C9481001C
:100060000C9481000C9481000E02000024272A00C9
:100070000025282B0000232629040404040404047A
:100080000402020202020203030303030301020447
:10009000081020408001020408102001020408100A
:1000A0002000000007000201000003040600000019
:1000B00000000000000011241FBECFEFD4E0DEBF1F
:1000C000CDBF11E0A0E0B1E0E0EFFAE002C00590A2
:1000D0000D92A431B107D9F711E0A4E1B1E001C05C
:1000E0001D92AD39B107E1F710E0CAE6D0E004C0D7
:1000F0002297FE010E947405C836D107C9F70C94F7
:100100003E010C9400000F931F93CF93DF9360E0A8
:1001100080910D010E94C30484E690E00E940204D5
:1001200000E010E061E080910F010E94C3048AE0CA
:1001300090E00E940204809111010E947704C82B74
:10014000D92BCC0FDD1F60E080910F010E94C3040A
:1001500082E390E00E9402040F5F1F4F00311105FF
:1001600009F761E080910D010E94C30482E390E0F1
:100170000E94020440E855E260E070E084E191E012
:100180000E94080260E071E084E191E00E94EF01CA
:10019000AE01B5E056954795BA95E1F740725070BB
:1001A000CE01A5E096958795AA95E1F780749070A9
:1001B000482B592BCE01F5E096958795FA95E1F7F6
:1001C00088709070482B592BCE0182709070482B0C
:1001D000592B9E01E5E036952795EA95E1F72070C9
:1001E0003170CE0175E0969587957A95E1F7807824
:1001F0009070282B392BCE0165E0969587956A95EE
:10020000E1F780719070282B392BC870D0702C2B9F
:100210003D2B422B532B662777272AE030E084E1E1
:1002200091E00E94C1016BE071E084E191E00E94E5
:10023000EF016AE070E080E090E00E94E003DF916F
:10024000CF911F910F91089561E080910D010E945F
:10025000590461E080910F010E94590460E080918F
:1002600011010E94590461E080910D010E94C304B4
:1002700060E080910F010E94C3040895CFEFD4E0A5
:10028000DEBFCDBF0E940F040E9424010E948300A4
:10029000FDCF08950895CB01BA0133274427552790
:1002A0000E94D70208952AE00E944B010895AB01F5
:1002B000662777270E9453010895862F0E94C70260
:1002C0000895862F0E94C70208950F931F938C01F3
:1002D0006DE00E9461016AE0C8010E9461011F9106
:1002E0000F9108950F931F938C010E945301C80131
:1002F0000E9465011F910F9108950F931F938C0128
:100300000E945D01C8010E9465011F910F9108952F
:100310000F931F938C010E946101C8010E94650127
:100320001F910F910895EF92FF920F931F93CF9318
:10033000DF93EC017A018B0177FF0BC06DE20E9425
:10034000610110950095F094E094E11CF11C011DF1
:10035000111D2AE0B801A701CE010E944B01DF91D7
:10036000CF911F910F91FF90EF9008950F931F93DE
:100370008C010E949301C8010E9465011F910F9199
:1003800008952115310521F4642F0E94610108951B
:100390002A30310519F40E94930108950E944B01FF
:1003A00008950F931F938C010E94C101C8010E9400
:1003B00065011F910F910895AB01662757FD609568
:1003C000762F0E94930108950F931F938C010E9432
:1003D000DC01C8010E9465011F910F910895CB01B6
:1003E0000E94960308950F931F938C010E94EF01C2
:1003F000C8010E9465011F910F9108950E9480021B
:1004000008950E94610208950E945002992708955C
:10041000CB01BA010E940F02089508950895EF924A
:10042000FF920F931F937B018C0122E030E040E0AC
:1004300050E00E944305205C3D4B404F5F4FCA0196
:10044000B901A80197010E94430521503040404066
:100450005040BB2757FDBA95A52F942F832F2F5FB0
:100460003F4F4F4F5F4F8093C50021502093C400F2
:10047000E1ECF0E08081806180838081886080830E
:100480008081806880831F910F91FF90EF90089585
:10049000982F8091C00085FFFCCF9093C6000895EF
:1004A000809115019091160120911701309118014A
:1004B000821B930B80589F4F60E870E00E940E05EE
:1004C0000895409117015091180180911501909164
:1004D00016018417950719F48FEF9FEF0895FA011D
:1004E000E75EFE4F2081CA01019660E870E00E943D
:1004F0000E059093180180931701822F9927089574
:100500008091170190911801909316018093150125
:1005100008951F920F920FB60F9211242F933F93BD
:100520004F935F936F937F938F939F93AF93BF93FB
:10053000EF93FF934091C600E0911501F0911601F1
:10054000CF01019660E870E00E940E059C01809149
:100550001701909118012817390739F0E75EFE4F0F
:1005600040833093160120931501FF91EF91BF91C5
:10057000AF919F918F917F916F915F914F913F913B
:100580002F910F900FBE0F901F9018950895982FE0
:100590008091C00085FFFCCF9093C60008958091A4
:1005A000C00085FFFCCF8AE08093C60008952F929B
:1005B0003F924F925F926F927F928F929F92AF92F3
:1005C000BF92CF92DF92EF92FF920F931F93CF9340
:1005D000DF93CDB7DEB7A0970FB6F894DEBF0FBE9E
:1005E000CDBF6B017C0129013A01611571058105BF
:1005F000910541F48091C00085FFFCCF80E380939A
:10060000C60042C08824992454011E010894211C6C
:10061000311C8101080D191DC701B601A30192010A
:100620000E942105F80160830894811C911CA11C83
:10063000B11CC701B601A30192010E942105690105
:100640007A01211531054105510519F7F40131975A
:10065000E20DF31D14C0089481089108A108B108A7
:1006600080818A3018F4982F905D02C0982F995C91
:100670008091C00085FFFCCF9093C6003197811414
:100680009104A104B10439F7A0960FB6F894DEBF27
:100690000FBECDBFDF91CF911F910F91FF90EF90D3
:1006A000DF90CF90BF90AF909F908F907F906F9092
:1006B0005F904F903F902F90089522E030E040E00F
:1006C00050E00E94D702089528E030E040E050E07A
:1006D0000E94D702089520E130E040E050E00E94FF
:1006E000D7020895EF92FF920F931F937B018C0125
:1006F00097FF0FC08091C00085FFFCCF8DE28093F3
:10070000C60010950095F094E094E11CF11C011DC9
:10071000111D2AE030E040E050E0C801B7010E941E
:10072000D7021F910F91FF90EF900895FC0107C031
:100730008091C00085FFFCCF31969093C6009081D8
:100740009923B1F708951F920F920FB60F921124BB
:100750008F939F93AF93BF938091990190919A014A
:10076000A0919B01B0919C010196A11DB11D8093A8
:10077000990190939A01A0939B01B0939C01BF9122
:10078000AF919F918F910F900FBE0F901F90189572
:100790006091990170919A0180919B0190919C01C7
:1007A00027E0660F771F881F991F2A95D1F72DE73D
:1007B00030E040E050E00E942105CA01B9010895EF
:1007C000AF92BF92CF92DF92EF92FF920F931F935F
:1007D0005B016C010E94C8037B018C010E94C8036D
:1007E0006E197F09800B910B6A157B058C059D05A1
:1007F000A8F31F910F91FF90EF90DF90CF90BF90E3
:10080000AF900895019751F0880F991F880F991F95
:1008100002972FB7F8940197F1F72FBF08957894B6
:100820001092990110929A0110929B0110929C01D2
:1008300084B5826084BD84B5816084BD85B58260E5
:1008400085BD85B5816085BDEEE6F0E08081816083
:100850008083E1E8F0E08081826080838081816034
:100860008083E0E8F0E0808181608083E1EBF0E06C
:10087000808184608083E0EBF0E080818160808310
:10088000ECE7F0E080818F778083808180648083D3
:10089000EAE7F0E0808184608083808182608083E9
:1008A0008081816080838081806880831092C10014
:1008B0000895282F3327C90183579F4FFC01949136
:1008C00027583F4FF9018491882381F0E82FFF27B3
:1008D000E659FF4FE491FF27662329F48081909524
:1008E0008923808308958081892B80830895482FF0
:1008F0005527CA018F559F4FFC012491CA01835788
:100900009F4FFC01949147585F4FFA013491332374
:1009100019F480E090E00895222331F1233021F48E
:10092000809180008F7705C0243031F48091800061
:100930008F7D8093800018C0213019F484B58F77A3
:1009400004C0223021F484B58F7D84BD0DC02630D3
:1009500021F48091B0008F7705C0273029F4809171
:10096000B0008F7D8093B000E32FFF27EC58FF4F3E
:10097000E491FF27808120E030E0892311F021E01D
:1009800030E0C9010895482F5527CA018F559F4F60
:10099000FC012491CA0183579F4FFC019491475851
:1009A0005F4FFA0134913323C1F1222331F1233017
:1009B00021F4809180008F7705C0243031F480913C
:1009C00080008F7D8093800018C0213019F484B599
:1009D0008F7704C0223021F484B58F7D84BD0DC093
:1009E000263021F48091B0008F7705C0273029F49C
:1009F0008091B0008F7D8093B000E32FFF27E159F5
:100A0000FF4FE491FF27662329F480819095892385
:100A1000808308958081892B8083089597FB092E18
:100A200007260AD077FD04D049D006D000201AF45A
:100A3000709561957F4F0895F6F7909581959F4F3A
:100A40000895A1E21A2EAA1BBB1BFD010DC0AA1F0F
:100A5000BB1FEE1FFF1FA217B307E407F50720F027
:100A6000A21BB30BE40BF50B661F771F881F991FA2
:100A70001A9469F760957095809590959B01AC01EB
:100A8000BD01CF01089597FB092E05260ED057FD15
:100A900004D0D7DF0AD0001C38F45095409530952B
:100AA00021953F4F4F4F5F4F0895F6F790958095F2
:100AB000709561957F4F8F4F9F4F0895AA1BBB1B69
:100AC00051E107C0AA1FBB1FA617B70710F0A61B4E
:100AD000B70B881F991F5A95A9F780959095BC016F
:100AE000CD010895EE0FFF1F0590F491E02D0994BC
:100AF00072656365697665643A20000A000A000B36
:040B0000000C0000E5
:00000001FF
