:100000000C9434000C9451000C9451000C94510049
:100010000C9451000C94D6000C9483000C94510065
:100020000C9451000C9451000C9451000C9451000C
:100030000C9468010C9451000C9451000C945100E4
:100040000C9451000C9451000C9451000C945100EC
:100050000C9451000C9451000C9451000C945100DC
:100060000C9451000C94510011241FBECFEFD8E026
:10007000DEBFCDBF11E0A0E0B1E0E4EFF5E002C0EB
:1000800005900D92A636B107D9F711E0A6E6B1E0CA
:1000900001C01D92A438B107E1F70E9402020C943E
:1000A000F8020C940000809168018823E1F42FB7D6
:1000B000F8942A9810928500109284008FEF9FEF99
:1000C00090938B0080938A0080E18093800082E08F
:1000D0008093810080916F00846080936F0081E045
:1000E000809368012FBF08959FB7F894EFE6F0E082
:1000F00080818B7F8083109280001092810010920B
:1001000068019FBF08951F920F920FB60F9211249E
:100110002F933F934F935F936F937F938F939F930F
:10012000AF93BF93EF93FF9380916801882329F0E9
:10013000A4E2B1E020E030E005C0809169018823AD
:10014000B9F70EC08D919D91F901EE0FFF1FE050A0
:10015000FF4F918380832F5F3F4F2231310591F70D
:1001600080916601823021F480914801882321F03A
:1001700080916901882321F00E9453001092690147
:1001800081E08093480110926701FF91EF91BF9148
:10019000AF919F918F917F916F915F914F913F911F
:1001A0002F910F900FBE0F901F9018951F920F92D6
:1001B0000FB60F921124EF92FF921F932F933F934C
:1001C0004F935F936F937F938F939F93AF93BF935F
:1001D000CF93DF93EF93FF93C0918400D09185007C
:1001E00080916601823079F480916801882311F052
:1001F0000E947400489B02C02A9A01C02A98A895C0
:10020000109248014FC08091730160EEE62E6CEFB2
:10021000F62EEC0EFD1E19B1482F4127A4E7B1E0E0
:1002200030E021E0822F842301F1822F812321F00D
:100230001196DC93CE9319C08D919C911197B701C3
:10024000681B790BCB017DE089349707A0F453E05C
:10025000883E950780F0E32FEE0FEF5FF0E0EE0FA2
:10026000FF1FE050FF4F918380833F5F129638302D
:1002700041F0220FD7CF809167018F5F8093670194
:10028000F4CFA8951092480180916801882311F459
:100290000E94530089B1181711F0812FBCCF109321
:1002A0007301DA9AFF91EF91DF91CF91BF91AF91F6
:1002B0009F918F917F916F915F914F913F912F917E
:1002C0001F91FF90EF900F900FBE0F901F90189509
:1002D0001F920F920FB60F9211242F934F935F939B
:1002E0008F939F93EF93FF9340918A0050918B00DF
:1002F00020916501E22FF0E0EE0FFF1FE050FF4F6D
:1003000080819181840F951F90938B0080938A0048
:100310002F5F20936501223110F010926501FF914B
:10032000EF919F918F915F914F912F910F900FBE01
:100330000F901F901895882311F481E003C0893035
:1003400008F088E0880F8F5FE82FF0E0EE0FFF1FC6
:10035000E050FF4F2081318180819181281739073A
:10036000C9F7205E3C4FC90108958091660188233A
:1003700001F552985A9A519A599885E3982F9A956F
:10038000F1F799B19695969590959170599A8A95AD
:10039000F1F74A999F5F599885E38A95F1F74A9951
:1003A00005C0923019F49093660103C081E08093F8
:1003B00066011AB88BB19FEF9BB9809166018130BD
:1003C00011F490936D0080916601823019F481E000
:1003D00080936D0080916800846080936800229A09
:1003E00088E10FB6F89480936000109260000FBE11
:1003F000A8958091600088618093600084E4809378
:1004000060000895EF92FF920F931F93CF93DF93B5
:1004100004B600FC0BC004B601FC08C004B602FE22
:1004200005C014BE81E08093690101C014BE0E9422
:10043000B501209A219A229A14BC85E085BD16BC8C
:1004400017BC18BC10926E007894299A20916E0106
:1004500030916F0161E048E25FE0809148018823BC
:1004600071F02F5F3F4F2C33310528F085B186277F
:1004700085B920E030E0CA010197F1F7EECF209373
:100480006E0130936F0180916601823009F460C083
:1004900060916C0170916D0140916A0150916B0106
:1004A000E0E0F1E002EE14E0C8EDDEE0EE2321F43E
:1004B00080914801882331F02F5F3F4F2C33310565
:1004C000E0F016C080910A0190910B012F5F3F4F21
:1004D000A0E0B0E0885E9340A040B040B695A795FC
:1004E000979587957801E81AF90A2E153F0528F0A7
:1004F00085B18F2785B920E030E08091670188239E
:10050000B1F085E76133780728F01092670160E069
:1005100070E00DC06F5F7F4F80916701823038F0CF
:100520001092670160E070E040E050E002C0EE230E
:1005300059F083E14938580720F0E0E040E050E00E
:1005400003C04F5F5F4FE1E0CE010197F1F7AECFFF
:1005500060917201409170015091710171E0A8E2C7
:10056000BFE080914801882359F02F5F3F4F2C3323
:100570003105D0F185B1872785B920E030E034C05E
:100580004F5F5F4FE62FF0E0E75BFE4FE081E23028
:10059000A1F0E33028F4EE2359F0E13011F512C058
:1005A000E430D1F0E43098F0E530D9F460E01CC0DC
:1005B00085E04C3D5807C0F013C083E0483E580723
:1005C00098F003C0483C510578F028980AC081E0B3
:1005D0004039580748F004C082E04E3E580720F0EA
:1005E000289A6F5F40E050E0CD010197F1F7B9CF55
:0405F000F894FFCFAD
:1005F400200398082003980820037805200398080E
:10060400200306092003980820039808200398086B
:100614002003085220039808200398082003E803C5
:10062400200398082003060920039808200398084B
:100634002003980820030852010002040103010565
:100644000000000000000000020401030103010592
:060654000000000000118F
:00000001FF
