:100000000C949D000C94C5000C94C5000C94C50084
:100010000C94C5000C94C5000C94C5000C94C5004C
:100020000C94C5000C94C5000C94C5000C94C5003C
:100030000C94C5000C94C5000C94C5000C94C5002C
:100040000C94E20B0C94C5000C94EE0D0C94C500BE
:100050000C94C5000C94C5000C94C5000C94C5000C
:100060000C94AA020C94C50007634236B79BD8A72C
:100070001A39685618AEBAAB558C1D3CB7CC5763CD
:10008000BD6DEDFD753EF6177231BF000000803F7B
:1000900008000000BE922449123EABAAAA2ABECD97
:1000A000CCCC4C3E00000080BEABAAAAAA3E000009
:1000B0000000BF000000803F000000000008417801
:1000C000D3BB4387D1133D190E3CC3BD4282AD2B38
:1000D0003E68EC8276BED98FE1A93E4C80EFFFBE30
:1000E00001C4FF7F3F0000000000000024272A0019
:1000F0000025282B000023262904040404040404FA
:1001000004020202020202030303030303010204C6
:100110000810204080010204081020010204081089
:100120002000000007000201000003040600000098
:1001300000000000000036013A0A11241FBECFEF74
:10014000D4E0DEBFCDBF11E0A0E0B1E0EEEAF6E220
:1001500002C005900D92A033B107D9F712E0A0E3D9
:10016000B1E001C01D92A93CB107E1F711E0CAE37B
:10017000D1E004C02297FE010E945113C633D1077B
:10018000C9F70E94330A0C9455130C94000008958B
:10019000089581E080933901609334011092370112
:1001A00010923801089581E0809339016093340101
:1001B0001092370110923801089580913301909187
:1001C0003201891B08959091320180913301981773
:1001D00010F080E00895E0913001F0913101E90FD5
:1001E000F11D80819F5F9093320108959C01809161
:1001F0003C0190913D01892B11F190913201809148
:1002000033019817E0F090E00BC0E0913001F091DD
:100210003101EA0FFB1FA20FB31F8C9180839F5FF8
:10022000A92FB0E0A617B70784F3109232016093AC
:100230003301E0913C01F0913D01CB010995089516
:10024000E0913A01F0913B01309729F0109237018B
:10025000109238010995089570933D0160933C0117
:10026000089570933B0160933A0108950895DF93D8
:10027000CF930F92CDB7DEB7698380913901882380
:10028000A9F0809138018032B0F480913701E0917B
:100290003501F0913601E80FF11D6083809137013F
:1002A0008F5F809337018093380105C061E0CE01F4
:1002B00001960E946B020F90CF91DF9108950E94EA
:1002C00037010895EF92FF920F931F93CF93DF931F
:1002D0007C01262F042F80913901882361F0372F6C
:1002E000E90110E005C06991C7010E9437011F5F55
:1002F0001017C8F305C0642F822F972F0E946B023E
:10030000DF91CF911F910F91FF90EF900895FB0126
:1003100001900020E9F73197E61BF70B4E2F0E9462
:1003200062010895609135017091360121E040919C
:100330003801809134010E942602109237011092F8
:100340003801109239010895862F413208F040E2B9
:1003500060913001709131010E94F00110923201E0
:100360008093330108950E94A401089561E070E034
:1003700080E290E00E942B0E809330019093310137
:10038000109232011092330161E070E080E290E05F
:100390000E942B0E80933501909336011092370105
:1003A000109238010E942C0408950F931F938C0122
:1003B000862F0E94EC0180E291E00E948D0286EF80
:1003C00090E00E948802C8010E94B6011F910F911F
:1003D00008950E94D5010895880F8093BA0008956A
:1003E000982F413210F040E02FC080913F018823C8
:1003F000E1F781E080933F018FEF809350011092ED
:10040000470140934801990F91609093400185EE18
:100410008093BC0080913F018130E1F380914701DE
:10042000841710F440914701A0914501B091460115
:1004300020E030E007C0FB01E20FF31F8D918083C5
:100440002F5F3F4F2417B8F3842F08951F93582F21
:10045000122F413210F081E03CC080913F0188238F
:10046000E1F782E080933F018FEF8093500110927B
:10047000470140934801A0914501B0914601FB011D
:1004800002C081918D938E2F861B8417D0F3852F08
:1004900090E0880F991F8093400185EE8093BC0007
:1004A000112321F080913F018230E1F380915001CE
:1004B0008F3F11F480E00DC080915001803211F423
:1004C00082E007C080915001803311F084E001C0C8
:1004D00083E01F910895482F613210F081E0089564
:1004E00080913F01843011F082E0089560934C01C7
:1004F000A0914901B0914A01842F9C01F90102C0E9
:1005000081918D938E2F841B8617D0F380E0089500
:100510009093440180934301089590934201809306
:1005200041010895882311F085EC01C085E880938E
:10053000BC00089585ED8093BC008091BC0084FDD3
:10054000FCCF10923F01089585EC8093BC0010927F
:100550003F0108951F920F920FB60F9211242F930F
:100560003F934F935F936F937F938F939F93AF933B
:10057000BF93EF93FF938091B90090E0887F9070D4
:100580008036910509F4E2C081369105CCF58832B8
:10059000910509F47BC089329105B4F4803191054D
:1005A00009F46FC0813191053CF4009709F438C11A
:1005B000089709F040C165C08831910509F466C00B
:1005C000809709F038C17FC08034910509F4A3C039
:1005D0008134910544F48033910509F47FC0C897B4
:1005E00009F029C186C08035910509F486C0883597
:1005F000910509F495C08834910509F01CC19EC08D
:100600008839910509F404C189399105ECF48837DA
:10061000910509F49BC0893791054CF48836910502
:1006200009F494C08037910509F005C18FC088385E
:10063000910509F4EDC08039910509F48DC0803829
:10064000910509F0F8C088C0803B910509F4B2C05B
:10065000813B91054CF4803A910509F491C0883AA8
:10066000910509F0E8C0A6C0803C910509F4D4C00A
:10067000883C910509F4D0C0883B910509F0DBC0A6
:10068000B1C0809140018093BB00C0C090914701F0
:1006900080914801981778F490914701E0914501C5
:1006A000F0914601E90FF11D80818093BB009F5FAF
:1006B00090934701ABC085ED8093BC008091BC0056
:1006C00084FDFCCFB6C080E28093500185ED80931D
:1006D000BC008091BC0084FDFCCFABC080E3809364
:1006E000500185ED8093BC008091BC0084FDFCCF5F
:1006F000A0C088E3809350018FC080914701909102
:10070000BB00E0914501F0914601E80FF11D908397
:100710008F5F80934701909147018091480174C099
:10072000809147019091BB00E0914501F091460115
:10073000E80FF11D90838F5F8093470185ED8093D3
:10074000BC008091BC0084FDFCCF73C083E080932B
:100750003F0110924F015AC080914F01803208F042
:1007600057C080914F019091BB00E0914D01F091F5
:100770004E01E80FF11D90838F5F80934F0146C0BB
:1007800080914F01803248F480914F01E0914D01FA
:10079000F0914E01E80FF11D108260914F01E09140
:1007A0004301F091440170E080914D0190914E0120
:1007B000099532C084E080933F0110924B01109262
:1007C0004C01E0914101F0914201099580914C0169
:1007D000882341F481E080934C01E0914901F0913C
:1007E0004A01108290914B01E0914901F0914A0138
:1007F000E90FF11D80818093BB009F5F90934B01B7
:1008000090914B0180914C01981710F485EC01C038
:1008100085E88093BC000FC085EC8093BC0009C0C4
:100820001092500185ED8093BC008091BC0084FD46
:10083000FCCF10923F01FF91EF91BF91AF919F913B
:100840008F917F916F915F914F913F912F910F9079
:100850000FBE0F901F90189510923F01449A459A31
:10086000E9EBF0E080818E7F808380818D7F8083C3
:1008700088E48093B80085E48093BC0061E070E078
:1008800080E290E00E942B0E8093450190934601F8
:1008900061E070E080E290E00E942B0E80934901BD
:1008A00090934A0161E070E080E290E00E942B0E9C
:1008B00080934D0190934E010895382F20E0260F2C
:1008C000311DC90108958B976BE270E00E94EB1215
:1008D000882777FD8095982F0E94EB0F0E942610A5
:1008E0000E94B80FCB0108952F923F924F925F92D2
:1008F0006F927F928F929F92AF92BF92CF92EF9220
:10090000FF920F931F93DF93CF93CDB7DEB72C9752
:100910000FB6F894DEBF0FBECDBF5C013B01142FB4
:10092000F22E60E170E00E94EB1268E070E00E943D
:10093000EB12882777FD8095982F0E94EB0F0E947D
:10094000261069877A878B879C87C50168E070E0ED
:100950000E94EB1264E070E00E94EB12882777FDA2
:100960008095982F0E94EB0F0E9426106D837E8346
:100970008F839887C50164E070E00E94EB1262E00B
:1009800070E00E94EB12882777FD8095982F0E94D7
:10099000EB0F0E94261069837A838B839C83C501A9
:1009A00062E070E00E94EB12AA2797FDA095BA2F93
:1009B000BC01CD010E94EB0F0E9426101B012C01EF
:1009C00061E0812F0E94DD0C69857A858B859C858D
:1009D0000E94B80F8C2D0E94DD0C6D817E818F816D
:1009E00098850E94B80F8E2D0E94DD0C69817A8156
:1009F0008B819C810E94B80F802F0E94DD0CC20168
:100A0000B1010E94B80F8F2D0E94DD0C882477FC65
:100A10008094982CC401B3010E944D0C60E0812F9A
:100A20000E94DD0C2C960FB6F894DEBF0FBECDBF32
:100A3000CF91DF911F910F91FF90EF90CF90BF90DA
:100A4000AF909F908F907F906F905F904F903F906E
:100A50002F900895AF92BF92CF92DF92EF92FF92C4
:100A60000F931F935C01CA01861B970B0197AA275E
:100A700097FDA095BA2FBC01CD010E94EB0F9B0101
:100A8000AC0160E070E080E291E40E94CC107B0158
:100A90008C01CC24B7FCC094DC2CC601B5010E94AB
:100AA000EB0FA80197010E94500F0E94B80FDC01C4
:100AB000CB016AE070E00E94EB121F910F91FF9052
:100AC000EF90DF90CF90BF90AF9008956F927F929C
:100AD0008F929F92AF92BF92CF92DF92EF92FF924E
:100AE0000F931F933C01C0901001D0901101E09032
:100AF0000E01F0900F0100910C0110910D01A090DA
:100B00000A01B0900B01809000019090010143E038
:100B100050E060E070E00E942A059501A40165E0C4
:100B200070E00E947404C0901001D0901101E09018
:100B30000E01F0900F0100910C0110910D01A09099
:100B40000A01B0900B01809002019090030143E0F4
:100B500050E061E070E0C3010E942A059501A40104
:100B600065E070E00E947404C0901001D090110103
:100B7000E0900E01F0900F0100910C0110910D0119
:100B8000A0900A01B0900B018090040190900501A3
:100B900043E050E062E070E0C3010E942A05950145
:100BA000A40165E070E00E9474041F910F91FF9012
:100BB000EF90DF90CF90BF90AF909F908F907F90FD
:100BC0006F9008950F931F930EE311E0BC01C801CD
:100BD0000E94D30060E070E0C8010E945F0161E5FF
:100BE00070E0C8010E945F01C8010E9492011F913C
:100BF0000F9108950F931F93CF93DF930097D9F42C
:100C00008FEF6F3F780709F484C0CB01880F991FDD
:100C1000FC0123E0EE0FFF1F2A95E1F7E81BF90B1B
:100C2000EF5AFE4F828593850197B9F580819181B6
:100C30000E94E20532C081309105D1F500E010E05C
:100C400022C0888599858017910741F48A859B8504
:100C5000019721F4888199810E94E2052E9682E015
:100C6000C133D80771F7609118017091190188EEAE
:100C700093E00E94EB12882777FD8095982F0E94C1
:100C80004D0C0F5F1F4F80911A0190911B0180172F
:100C900091071CF0C1E5D1E0D4CF1092320210923E
:100CA00031028FEF9FEF909313018093120131C0B7
:100CB000029779F500E010E022C0888599858017B9
:100CC000910741F48A859B85019721F48881998158
:100CD0000E94E2052E9682E0C133D80771F7609139
:100CE00018017091190188EE93E00E94EB12882799
:100CF00077FD8095982F0E944D0C0F5F1F4F8091BC
:100D00001A0190911B01801791071CF0C1E5D1E0F9
:100D1000D4CFDF91CF911F910F910895EF92FF9261
:100D20000F931F937C018B01BC018EE391E00E9425
:100D3000D300000F111FB8018EE391E00E945F0104
:100D40008EE391E00E94920142E050E0B7018EE311
:100D500091E00E94B3018EE391E00E94DD008823C0
:100D6000C9F08EE391E00E94E300182F8EE391E03A
:100D70000E94E300312F20E0280F311DA90173E00C
:100D8000440F551F7A95E1F7220F331F420F531F6F
:100D9000CA0100C01F910F91FF90EF900895FF923C
:100DA0000F931F93F62E0EE311E0682FC8010E94E7
:100DB000C90061E070E0C8010E945F016F2DC801A9
:100DC0000E943701C8010E9492011F910F91FF906C
:100DD0000895FF920F931F93F62E0EE311E0682FF4
:100DE000C8010E94C90062E070E0C8010E945F0172
:100DF0006F2DC8010E943701C8010E9492011F9106
:100E00000F91FF900895EF92FF920F931F937B0134
:100E100007E312E0682FC8010E94530A6F2D77275D
:100E200067FD7A95C8010E94530A6E2DC8010E9481
:100E3000530A1F910F91FF90EF900895EF92FF9248
:100E40000F931F93CF93DF937C018B01009729F5BC
:100E50008FEF6F3F780709F46CC0CB01880F991FA3
:100E6000EC01A3E0CC0FDD1FAA95E1F7C81BD90B5D
:100E7000CF5ADE4F8A859B85019779F560911C01D9
:100E800070911D01888199810E948E069D878C87B3
:100E9000BC01C8010E94030720C081E0E816F104EC
:100EA00039F5C1E5D1E000E010E08A859B85019726
:100EB00071F460911C0170911D01888199810E94DB
:100EC0008E069D878C87BC01C8010E9403070F5FB7
:100ED0001F4F2E960031110541F7109234021092E7
:100EE00033028FEF9FEF909315018093140121C07F
:100EF00082E0E816F104E9F4C1E5D1E000E010E099
:100F00008A859B85019771F460911C0170911D0188
:100F1000888199810E948E069D878C87BC01C801BB
:100F20000E9403070F5F1F4F2E960031110541F7F6
:100F300028C083E0E816F10421F5C1E5D1E000E026
:100F400010E060911C0170911D01888199810E94BF
:100F50008E06BC019D878C878E819F81861797079F
:100F600054F06115710539F08A859B85019719F454
:100F7000C8010E9403070F5F1F4F2E960031110515
:100F800001F7DF91CF911F910F91FF90EF9008959E
:100F90000F931F9387E392E00E944B0A882309F482
:100FA000C3C187E392E00E94480A282F8C3339F4AA
:100FB00081E090E090933402809333020EC08E3330
:100FC00061F481E090E090933202809331028FEFE0
:100FD0009FEF9093130180931201822F81548A31E5
:100FE00060F41092320210923102822F90E081540C
:100FF00090409093130180931201822F81568A3181
:1010000040F4822F90E08156904090931501809398
:1010100014012E3589F487E392E00E94480A803358
:1010200009F442C0813309F07FC182E090E09093DF
:101030003202809331024CC0253261F487E392E0A2
:101040000E94480A853608F084E6809318011092C1
:1010500019016AC1263251F487E392E00E94480ADE
:10106000682F803208F06FE180E0A3C02C37A1F434
:1010700087E392E00E94480A182F87E392E00E94DB
:10108000480A312F20E0A901480F511DCA010E94D2
:101090006304682F80E0C8C02132F9F487E392E04E
:1010A0000E94480A803349F41092320210923102B1
:1010B000109234021092330237C1813309F034C1E7
:1010C00082E090E0909332028093310283E090E0DE
:1010D000909334028093330227C12D33C9F487E300
:1010E00092E00E94480A182F87E392E00E94480A83
:1010F000312F20E0A901480F511DCA01E7E5F1E0B9
:10110000918380833E9652E0E733F507C9F70CC11F
:101110002F3519F587E392E00E94480A182F87E3DC
:1011200092E00E94480A082F87E392E00E94480A52
:10113000212F30E0220F331FF90143E0EE0FFF1F94
:101140004A95E1F7E21BF30BEF5AFE4F302F20E0F8
:10115000280F311D37832683E7C02B3269F587E3DB
:1011600092E00E94480A182F87E392E00E94480A02
:10117000682F803208F06FE1812F90E0FC0133E0AE
:10118000EE0FFF1F3A95E1F7E81BF90BEE0FFF1F7B
:10119000ED5AFE4F60831182880F991FFC0113E006
:1011A000EE0FFF1F1A95E1F7E81BF90BEF5AFE4F00
:1011B00080810E94CF06B8C02D32C9F587E392E046
:1011C0000E94480A082F87E392E00E94480A182FDD
:1011D00087E392E00E94480A312F20E0A901480FDE
:1011E000511DCA010E946304202F30E0220F331FDB
:1011F000F901A3E0EE0FFF1FAA95E1F7E21BF30B45
:10120000EF5AFE4F84839583202F30E0220F331F47
:10121000F90163E0EE0FFF1F6A95E1F7E21BF30BA4
:10122000EF5AFE4F682F80810E94E9067DC023326D
:1012300049F487E392E00E94480A80931A011092D1
:101240001B0172C02432D1F487E392E00E94480A65
:10125000182F87E392E00E94480A212F30E0220FE6
:10126000331FF90143E0EE0FFF1F4A95E1F7E21B40
:10127000F30BEF5AFE4F8087118656C0203409F0D9
:1012800049C087E392E00E94480A182F87E392E062
:101290000E94480A1033E1F48A3251F4EBE5F1E0A0
:1012A000118210823E9652E0EB33F507C9F73CC03D
:1012B00090E0880F991FFC0123E0EE0FFF1F2A9595
:1012C000E1F7E81BF90BEF5AFE4F138612862CC08C
:1012D000113351F58A3261F4EBE5F1E081E090E001
:1012E000918380833E9622E0EB33F207C9F71CC05E
:1012F00090E0880F991FFC0113E0EE0FFF1F1A9575
:10130000E1F7E81BF90BEF5AFE4F81E090E093877D
:1013100082870AC02E3741F487E392E00E94480A90
:1013200080931C0110921D011F910F9108950E943E
:10133000C807609112017091130180913102909160
:1013400032020E94FA05609114017091150180919A
:101350003302909134020E941E0781E090E00E94C7
:101360006605089561E0809100010E94BF0C61E074
:10137000809102010E94BF0C61E0809104010E94F3
:10138000BF0C61E080910A010E94BF0C61E0809176
:101390000C010E94BF0C61E080910E010E94BF0C05
:1013A00061E0809110010E94BF0CE1E5F1E080E76F
:1013B00090E0918380833E96019622E0E133F2072C
:1013C000C1F78091160190911701E7E5F1E0918353
:1013D00080833E9622E0E733F207C9F7E9E5F1E0C2
:1013E00080E090E09183808301963E968031910564
:1013F000C9F7409135025091360220912201309177
:101400002301EBE5F1E080E090E061E070E084171B
:10141000950734F0281739071CF07183608302C0E8
:101420001182108201963E968031910581F78EE3FC
:1014300091E00E94B60140E855E260E070E087E389
:1014400092E00E944E0A80911E0190911F010E941D
:101450006304682F80E00E94E9066091200180E02B
:101460000E94CF0608950E94850C0E94B2090E9436
:101470009709FDCF88E291E090933802809337027C
:101480000895862F0E94AD0D08950E94E50D0895E0
:101490000E94C60D08950E94B50D0895CB01BA01B2
:1014A0000E94740D0895DC01ED91FC910190F08192
:1014B000E02D09950895DC01ED91FC910190F081FA
:1014C000E02D099508950F931F93CF93DF938C011F
:1014D000EB0109C02196D801ED91FC910190F081BA
:1014E000E02DC801099568816623A1F7DF91CF91AE
:1014F0001F910F9108950F931F938C01DC01ED91C3
:10150000FC910190F081E02D6DE00995D801ED91FD
:10151000FC910190F081E02D6AE0C80109951F91CE
:101520000F9108950F931F938C01DC01ED91FC91B5
:101530000190F081E02D0995C8010E947B0A1F915E
:101540000F9108950F931F938C010E94630AC801A5
:101550000E947B0A1F910F9108950F931F938C0196
:10156000DC01ED91FC910190F081E02D0995C8011D
:101570000E947B0A1F910F9108952F923F924F92E4
:101580005F926F927F928F929F92AF92BF92CF9213
:10159000DF92EF92FF920F931F93DF93CF93CDB71C
:1015A000DEB7A0970FB6F894DEBF0FBECDBF1C010B
:1015B0006A017B01411551056105710549F4DC01A2
:1015C000ED91FC910190F081E02D60E3099554C00C
:1015D000882499245401422E55246624772401E05E
:1015E00010E00C0F1D1F080D191DC701B601A30146
:1015F00092010E94FE12F80160830894811C911CE4
:10160000A11CB11CC701B601A30192010E94FE12E8
:10161000C901DA016C017D01C114D104E104F104B6
:10162000F1F681E0E82EF12CEC0EFD1EE80CF91C21
:101630003E010894611C711CD501C4010197A109E8
:10164000B1096C01C818D90814C0F601EE0DFF1DD0
:1016500060816A3010F4605D01C0695CD101ED9178
:10166000FC910190F081E02DC10109950894E108F9
:10167000F1086E147F0449F7A0960FB6F894DEBF08
:101680000FBECDBFCF91DF911F910F91FF90EF90D3
:10169000DF90CF90BF90AF909F908F907F906F9092
:1016A0005F904F903F902F9008952AE00E94BD0ACE
:1016B00008950F931F938C010E94550BC8010E943F
:1016C0007B0A1F910F910895AB0160E070E00E94CA
:1016D000550B08950F931F938C01AB0160E070E0F0
:1016E0000E94550BC8010E947B0A1F910F9108951B
:1016F000EF92FF920F931F93CF93DF93EC017A0148
:101700008B0177FF0FC0E881F9810190F081E02D16
:101710006DE2099510950095F094E094E11CF11CA0
:10172000011D111D2AE0B801A701CE010E94BD0ACA
:10173000DF91CF911F910F91FF90EF9008950F933C
:101740001F938C010E94780BC8010E947B0A1F9195
:101750000F910895AB01662757FD6095762F0E9483
:10176000780B08950F931F938C01AB01662757FDEB
:101770006095762F0E94780BC8010E947B0A1F910A
:101780000F910895DC012115310541F4ED91FC9193
:101790000190F081E02D642F099508952A303105DC
:1017A00019F40E94780B08950E94BD0A08950F93C2
:1017B0001F938C010E94C20BC8010E947B0A1F91DB
:1017C0000F9108951F920F920FB60F9211242F932D
:1017D0008F939F93AF93BF938091390290913A0278
:1017E000A0913B02B0913C028050904CAF4FBF4F54
:1017F0008093390290933A02A0933B02B0933C024B
:1018000027C08091390290913A02A0913B02B09199
:101810003C0280589E43A040B04080933902909390
:101820003A02A0933B02B0933C0280913D0290911A
:101830003E02A0913F02B09140020196A11DB11D50
:1018400080933D0290933E02A0933F02B0934002EA
:101850008091390290913A02A0913B02B0913C02F2
:1018600081589E43A040B04060F6BF91AF919F91D8
:101870008F912F910F900FBE0F901F9018958FB7DB
:10188000F89420913D0230913E0240913F025091E8
:1018900040028FBFB901CA010895EF92FF920F93E2
:1018A0001F937B018C018FB7F89440913D025091BA
:1018B0003E0260913F02709140028FBF2FB7F894B3
:1018C00080913D0290913E02A0913F02B091400272
:1018D0002FBF841B950BA60BB70B8E159F05A0077A
:1018E000B10760F31F910F91FF90EF90089501975A
:1018F00059F0FC01EE0FFF1FEE0FFF1F32978FB75D
:10190000F8943197F1F78FBF0895789484B5826089
:1019100084BD84B5816084BD85B5826085BD85B593
:10192000816085BDEEE6F0E0808181608083E1E842
:10193000F0E0808182608083808181608083E0E844
:10194000F0E0808181608083E1EBF0E08081846061
:101950008083E0EBF0E0808181608083EAE7F0E063
:1019600080818460808380818260808380818160C7
:1019700080838081806880831092C1000895282F21
:1019800030E0C901835F9E4FFC01949127503F4F87
:10199000F9018491882381F0E82FF0E0E651FF4FB0
:1019A000E491F0E0662329F4808190958923808377
:1019B00008958081892B80830895482F50E0CA01C3
:1019C0008F5D9E4FFC012491CA01835F9E4FFC01F5
:1019D000949147505F4FFA0134913323C1F1222390
:1019E00031F1233021F4809180008F7705C02430BD
:1019F00031F4809180008F7D8093800018C0213069
:101A000019F484B58F7704C0223021F484B58F7D1A
:101A100084BD0DC0263021F48091B0008F7705C0C1
:101A2000273029F48091B0008F7D8093B000E32FA0
:101A3000F0E0E151FF4FE491F0E0662329F480816A
:101A400090958923808308958081892B80830895D0
:101A5000482F50E0CA018F5D9E4FFC012491CA01BE
:101A6000835F9E4FFC01949147505F4FFA01349180
:101A7000332319F420E030E035C0222331F1233044
:101A800021F4809180008F7705C0243031F480915B
:101A900080008F7D8093800018C0213019F484B5B8
:101AA0008F7704C0223021F484B58F7D84BD0DC0B2
:101AB000263021F48091B0008F7705C0273029F4BB
:101AC0008091B0008F7D8093B000E32FF0E0EC5068
:101AD000FF4FE491F0E0808120E030E0892311F0B5
:101AE00021E030E0C9010895EF92FF920F931F9318
:101AF0007B018C0122E030E040E050E00E942013A6
:101B0000205C3D4B404F5F4FCA01B901A8019701CE
:101B10000E942013C901DA010197A109B109292FF7
:101B20003A2F4B2F552747FD5A950196A11DB11D00
:101B30002093C50081508093C400E1ECF0E08081E7
:101B400080618083808188608083808180688083D9
:101B50001F910F91FF90EF900895982F8091C000F2
:101B600085FFFCCF9093C60008958091410290912B
:101B7000420280589F4F2091430230914402821BC1
:101B8000930B60E870E00E94EB12089540914302CD
:101B9000509144028091410290914202841795072E
:101BA00019F42FEF3FEF0FC0FA01EB5BFD4F2081DF
:101BB000CA01019660E870E00E94EB129093440223
:101BC0008093430230E0C9010895809143029091CF
:101BD0004402909342028093410208951F920F9213
:101BE0000FB60F9211242F933F934F935F936F93F0
:101BF0007F938F939F93AF93BF93EF93FF93409106
:101C0000C600E0914102F0914202CF01019660E8E6
:101C100070E00E94EB129C0180914302909144027B
:101C20002817390739F0EB5BFD4F408330934202B0
:101C300020934102FF91EF91BF91AF919F918F91BE
:101C40007F916F915F914F913F912F910F900FBEB8
:101C50000F901F9018950F931F93CF93DF93689F5A
:101C60008001699F100D789F100D1124C8010E94FA
:101C7000470EEC01009729F0A80160E070E00E9497
:101C8000490FCE01DF91CF911F910F910895CF930E
:101C9000DF93BC018230910510F462E070E0A09106
:101CA000C702B091C802ED01E0E0F0E040E050E092
:101CB00021C0888199818617970769F48A819B8161
:101CC000309719F09383828304C09093C802809365
:101CD000C702FE0134C06817790738F44115510571
:101CE00019F08417950708F4AC01FE018A819B81E5
:101CF0009C01E9012097E9F641155105A9F1CA01B6
:101D0000861B970B049708F4BA01E0E0F0E02AC0C4
:101D10008D919C91119784179507F9F464177507B5
:101D200081F412968D919C911397309719F09383BB
:101D3000828304C09093C8028093C702FD0132964B
:101D40004CC0CA01861B970BFD01E80FF91F619378
:101D5000719302978D939C9340C0FD018281938182
:101D60009C01D9011097A1F68091C5029091C602FD
:101D7000892B41F480912C0190912D019093C60202
:101D80008093C50240912E0150912F0141155105BC
:101D900041F44DB75EB780912A0190912B01481B09
:101DA000590B2091C5023091C602CA01821B930BC8
:101DB0008617970780F0AB014E5F5F4F841795073A
:101DC00050F0420F531F5093C6024093C502F901D1
:101DD0006193719302C0E0E0F0E0CF01DF91CF9119
:101DE0000895CF93DF93009709F450C0EC01229738
:101DF0001B821A82A091C702B091C802109709F104
:101E000040E050E0AC17BD0708F1BB83AA83FE0198
:101E100021913191E20FF31FAE17BF0779F48D9135
:101E20009C911197280F391F2E5F3F4F39832883CC
:101E300012968D919C9113979B838A83411551052E
:101E400071F4D093C802C093C70220C012968D913E
:101E50009C911397AD01009711F0DC01D3CFFA01EB
:101E6000D383C28321913191E20FF31FCE17DF0795
:101E700069F488819981280F391F2E5F3F4FFA013D
:101E8000318320838A819B8193838283DF91CF91E9
:101E90000895DC0101C06D9341505040E0F7089572
:101EA0000CD029C121D140F018D130F021F45F3F8E
:101EB00019F0DFC051116AC10DC12ED198F39923D9
:101EC000C9F35523B1F3951B550BBB27AA276217FE
:101ED0007307840738F09F5F5F4F220F331F441F43
:101EE000AA1FA9F333D00E2E3AF0E0E830D091507B
:101EF0005040E695001CCAF729D0FE2F27D0660F68
:101F0000771F881FBB1F261737074807AB07B0E8A6
:101F100009F0BB0B802DBF01FF2793585F4F2AF0BC
:101F20009E3F510568F0A5C031C15F3FECF3983E7C
:101F3000DCF3869577956795B795F7959F5FC9F719
:101F4000880F911D9695879597F90895E1E0660FA2
:101F5000771F881FBB1F621773078407BA0720F01B
:101F6000621B730B840BBA0BEE1F88F7E095089584
:101F700004D06894B1110AC10895D6D088F09F5753
:101F800090F0B92F9927B751A0F0D1F0660F771FC5
:101F9000881F991F1AF0BA95C9F712C0B13081F0A5
:101FA000F4D0B1E00895F1C0672F782F8827B85F8B
:101FB00039F0B93FCCF3869577956795B395D9F706
:101FC0003EF490958095709561957F4F8F4F9F4F10
:101FD0000895E89409C097FB3EF49095809570951C
:101FE00061957F4F8F4F9F4F9923A9F0F92F96E965
:101FF000BB279395F695879577956795B795F111DA
:10200000F8CFFAF4BB0F11F460FF1BC06F5F7F4F76
:102010008F4F9F4F16C0882311F096E911C0772388
:1020200021F09EE8872F762F05C0662371F096E891
:10203000862F70E060E02AF09A95660F771F881F60
:10204000DAF7880F9695879597F9089587D080F0ED
:102050009F3740F491110EF099C060E070E080E885
:102060009FEB089526F41B16611D711D811D07C08D
:1020700021C097F99F6780E870E060E008958823A9
:1020800071F4772321F09850872B762F07C06623B1
:1020900011F499270DC09051862B70E060E02AF072
:1020A0009A95660F771F881FDAF7880F96958795A0
:1020B00097F908959F3F49F0915028F486957795B8
:1020C0006795B7959F5F80389F4F880F9695879546
:1020D00097F908959FEF80EC089500240A9416164E
:1020E000170618060906089500240A941216130606
:1020F000140605060895092E0394000C11F4882394
:1021000052F0BB0F40F4BF2B11F460FF04C06F5FAF
:102110007F4F8F4F9F4F089557FD9058440F551F85
:1021200059F05F3F71F04795880F97FB991F61F059
:102130009F3F79F087950895121613061406551FD0
:10214000F2CF4695F1DF08C0161617061806991F3C
:10215000F1CF86957105610508940895E5DFA0F03B
:10216000BEE7B91788F4BB279F3860F41616B11D77
:10217000672F782F8827985FF7CF86957795679593
:10218000B11D93959639C8F30895E894BB27662747
:102190007727CB0197F90895FA01EE0FFF1F3096CC
:1021A0002105310599F16115710561F48038BFE3AE
:1021B0009B0749F168949038810561F08038BFEF42
:1021C0009B0741F0992342F5FF3FE10531052105C9
:1021D00011F1E8940894E795D901AA2329F4AB2FCB
:1021E000BE2FF85FD0F310C0FF5F70F4A695E0F744
:1021F000F73950F019F0FF3A38F49F779F930CD0DD
:102200000F9007FC905808953EF064CF60E070E0B6
:1022100080E89FE308954FE79F775F934F933F9345
:102220002F939ED02F913F914F915F910CD105C07C
:1022300019F40EF01ECFA9CF4DCF76DFC8F3963834
:10224000C0F707F80F92E8942BE33AEA48EB5FE710
:1022500008D10F920F920F924DB75EB70F92C0D078
:10226000E8E6F0E016D04F915F91EF91FF91E59590
:10227000EE1FFF1F49F0FE57E0684427EE0F441F92
:10228000FA95E1F74195550B32D00F9007FE26C025
:102290000895DF93CF931F930F93FF92EF92DF92F6
:1022A0007B018C01689405C0DA2EEF01D8D0FE01C5
:1022B000E894A5912591359145915591AEF3EF01A3
:1022C00037D1FE019701A801DA9479F7DF90EF90FA
:1022D000FF900F911F91CF91DF9108959B01AC0169
:1022E00060E070E080E89FE3DBCDC3CEE3CE1CDF8F
:1022F000E8F39923D9F3940F511DBBF3915050404B
:1023000094F059F0882332F0660F771F881F9150A0
:102310005040C1F79E3F510544F7880F911D969597
:10232000879597F908955F3FACF0983E9CF0BB27E6
:10233000869577956795B79508F4B1609395C1F741
:10234000BB0F58F711F460FFE8CF6F5F7F4F8F4FDF
:102350009F4FE3CF1BCF0EF0ADCEBCCE689489CE9D
:10236000E3DEC8F39923D1F3C6F3DF93CF931F9332
:102370000F93FF92C92FDD2788232AF02197660F3C
:10238000771F881FDAF720E030E040E85FEB9FE33B
:10239000883920F0803E30F021968F77B8D0E0E980
:1023A000F0E003C0B4D0EDEBF0E073DF8B01BE01D1
:1023B000EC01FB2E6F5771097595771F880B990BF0
:1023C0000ADE28E132E741E35FE349D0AF2D98010F
:1023D000AE01FF900F911F91CF91DF91A9D08BCECD
:1023E000FA01DC01AA0FBB1F9B01AC01BF5728F407
:1023F00022273327442750781FC0B75188F4AB2FCA
:102400000024469537952795011CA395D2F300200B
:1024100069F0220F331F441FB395DAF30DD076C055
:1024200061307105A0E88A07B94630F49B01AC0120
:102430006627772788279078309621F0208331838C
:102440004283538308950BD056CE47DE28F04CDEEE
:1024500018F0952309F00DCE3DCE112497CE5CDE09
:10246000A0F3959FD1F3950F50E0551F629FF001A7
:10247000729FBB27F00DB11D639FAA27F00DB11D00
:10248000AA1F649F6627B00DA11D661F829F222789
:10249000B00DA11D621F739FB00DA11D621F839F10
:1024A000A00D611D221F749F3327A00D611D231FE6
:1024B000849F600D211D822F762F6A2F11249F5734
:1024C00050408AF0E1F088234AF0EE0FFF1FBB1F57
:1024D000661F771F881F91505040A9F79E3F5105F6
:1024E00070F0C7CD53CE5F3FECF3983EDCF386959A
:1024F00077956795B795F795E7959F5FC1F7FE2BA1
:10250000880F911D9695879597F908955058BB2788
:10251000AA270ED0F0CDE1DD30F0E6DD20F031F479
:102520009F3F11F41EF4D6CD0EF4E095E7FBA1CD4C
:10253000E92FF2DD80F3BA17620773078407950766
:1025400018F071F49EF521CE0EF4E0950B2EBA2F03
:10255000A02D0B01B90190010C01CA01A0011124A9
:10256000FF27591B99F0593F50F4503E68F11A1655
:10257000F040A22F232F342F4427585FF3CF4695E6
:1025800037952795A795F0405395C9F77EF41F1608
:10259000BA0B620B730B840BBAF09150A1F0FF0FD2
:1025A000BB1F661F771F881FC2F70EC0BA0F621FBE
:1025B000731F841F48F4879577956795B795F795AE
:1025C0009E3F08F0B3CF9395880F08F09927EE0F40
:1025D00097958795089597FB092E07260AD077FDD2
:1025E00004D049D006D000201AF4709561957F4F31
:1025F0000895F6F7909581959F4F0895A1E21A2EC0
:10260000AA1BBB1BFD010DC0AA1FBB1FEE1FFF1F96
:10261000A217B307E407F50720F0A21BB30BE40BE6
:10262000F50B661F771F881F991F1A9469F760952D
:102630007095809590959B01AC01BD01CF010895E7
:1026400097FB092E05260ED057FD04D0D7DF0AD000
:10265000001C38F450954095309521953F4F4F4FD1
:102660005F4F0895F6F790958095709561957F4F2F
:102670008F4F9F4F0895AA1BBB1B51E107C0AA1F94
:10268000BB1FA617B70710F0A61BB70B881F991F13
:102690005A95A9F780959095BC01CD010895EE0F4C
:0E26A000FF1F0590F491E02D0994F894FFCFF0
:1026AE0002000300040005000400080009000A00EF
:1026BE000B00FFFFFFFF94020E000A000100A00FA7
:1026CE0001000A0000000000410A2000C9020000BB
:00000001FF
