:100000000C9434000C9451000C9451000C94510049
:100010000C9451000C94D6000C9483000C94510065
:100020000C9451000C9451000C9451000C9451000C
:100030000C9468010C9451000C9451000C945100E4
:100040000C9451000C9451000C9451000C945100EC
:100050000C9451000C9451000C9451000C945100DC
:100060000C9451000C94510011241FBECFEFD8E026
:10007000DEBFCDBF11E0A0E0B1E0E0E9F6E002C0F4
:1000800005900D92A636B107D9F711E0A6E6B1E0CA
:1000900001C01D92A738B107E1F70E9402020C943B
:1000A00046030C940000809168018823E1F42FB787
:1000B000F8942A9810928500109284008FEF9FEF99
:1000C00090938B0080938A0080E18093800082E08F
:1000D0008093810080916F00846080936F0081E045
:1000E000809368012FBF08959FB7F894EFE6F0E082
:1000F00080818B7F8083109280001092810010920B
:1001000068019FBF08951F920F920FB60F9211249E
:100110002F933F934F935F936F937F938F939F930F
:10012000AF93BF93EF93FF9380916801882329F0E9
:10013000A4E2B1E020E030E005C0809169018823AD
:10014000B9F70EC08D919D91F901EE0FFF1FE050A0
:10015000FF4F918380832F5F3F4F2231310591F70D
:1001600080916601823021F480914801882321F03A
:1001700080916901882321F00E9453001092690147
:1001800081E08093480110926701FF91EF91BF9148
:10019000AF919F918F917F916F915F914F913F911F
:1001A0002F910F900FBE0F901F9018951F920F92D6
:1001B0000FB60F921124EF92FF921F932F933F934C
:1001C0004F935F936F937F938F939F93AF93BF935F
:1001D000CF93DF93EF93FF93C0918400D09185007C
:1001E00080916601823079F480916801882311F052
:1001F0000E947400489B02C02A9A01C02A98A895C0
:10020000109248014FC08091760160EEE62E6CEFAF
:10021000F62EEC0EFD1E19B1482F4127A7E7B1E0DD
:1002200030E021E0822F842301F1822F812321F00D
:100230001196DC93CE9319C08D919C911197B701C3
:10024000681B790BCB017DE089349707A0F453E05C
:10025000883E950780F0E32FEE0FEF5FF0E0EE0FA2
:10026000FF1FE050FF4F918380833F5F129638302D
:1002700041F0220FD7CF809167018F5F8093670194
:10028000F4CFA8951092480180916801882311F459
:100290000E94530089B1181711F0812FBCCF109321
:1002A0007601DA9AFF91EF91DF91CF91BF91AF91F3
:1002B0009F918F917F916F915F914F913F912F917E
:1002C0001F91FF90EF900F900FBE0F901F90189509
:1002D0001F920F920FB60F9211242F934F935F939B
:1002E0008F939F93EF93FF9340918A0050918B00DF
:1002F00020916501E22FF0E0EE0FFF1FE050FF4F6D
:1003000080819181840F951F90938B0080938A0048
:100310002F5F20936501223110F010926501FF914B
:10032000EF919F918F915F914F912F910F900FBE01
:100330000F901F901895882311F481E003C0893035
:1003400008F088E0880F8F5FE82FF0E0EE0FFF1FC6
:10035000E050FF4F2081318180819181281739073A
:10036000C9F7205E3C4FC90108958091660188233A
:1003700001F552985A9A519A599885E3982F9A956F
:10038000F1F799B19695969590959170599A8A95AD
:10039000F1F74A999F5F599885E38A95F1F74A9951
:1003A00005C0923019F49093660103C081E08093F8
:1003B00066011AB88BB19FEF9BB9809166018130BD
:1003C00011F490936D0080916601823019F481E000
:1003D00080936D0080916800846080936800229A09
:1003E00088E10FB6F89480936000109260000FBE11
:1003F000A8958091600088618093600084E4809378
:10040000600008958F929F92BF92CF92DF92EF92F9
:10041000FF920F931F93CF93DF9304B600FC0BC0A2
:1004200004B601FC08C004B602FE05C014BE81E09B
:100430008093690101C014BE0E94B501209A219ADF
:10044000229A14BC85E085BD16BC17BC18BC10925E
:100450006E007894299A409171015091720161E087
:1004600028E23FE080914801882371F04F5F5F4FA1
:100470004C33510528F085B1862785B940E050E01E
:10048000C9010197F1F7EECF4093710150937201CA
:1004900080916601823009F4A9C030916B0170919E
:1004A0006A01C0916F01D0917001E0916D01F091EE
:1004B0006E0120916C0100E010E0BB24B394B2EE19
:1004C000CB2EB4E0DB2EA8EDEA2EAEE0FA2E2F5FA5
:1004D0002F3140F1632F6F5F3530B8F420911E014A
:1004E00030911F0180911E0190911F01281739073B
:1004F000A9F789E02036380710F4715004C0215F55
:100500003A4008F07F5F362F0CC07B3F19F0753002
:1005100031F403C0299A00E002C0299801E030E0DC
:1005200070E020E0112321F480914801882331F00C
:100530004F5F5F4F4C33510580F118C00023E1F449
:1005400080910A0190910B014F5F5F4FA0E0B0E0F6
:10055000885E9340A040B040B695A7959795879543
:100560004601881A990A48155905B8F085B18B25B6
:1005700085B940E050E011C080910A0190910B01D3
:100580008154964010F0289A08C080910A019091F9
:100590000B018154964008F42898809167018823C4
:1005A000A9F085E7C133D80728F010926701C0E0B1
:1005B000D0E00CC0219680916701823038F0109213
:1005C0006701C0E0D0E0E0E0F0E002C0112351F0AC
:1005D00063E1E938F60720F010E0E0E0F0E002C067
:1005E000319611E0C7010197F1F771CF6091750164
:1005F000209173013091740171E0A8E2BFE0809115
:100600004801882359F04F5F5F4F4C335105D0F1BB
:1006100085B1872785B940E050E034C02F5F3F4F58
:10062000E62FF0E0E75BFE4FE081E230A1F0E3303F
:1006300028F4EE2359F0E13011F512C0E430D1F086
:10064000E43098F0E530D9F460E01CC085E02C3D42
:100650003807C0F013C083E0283E380798F003C085
:10066000283C310578F028980AC081E02039380705
:1006700048F004C082E02E3E380720F0289A6F5FD1
:1006800020E030E0CD010197F1F7B9CFF894FFCF2A
:100690002003980820039808200378052003980871
:1006A00020030609200398082003980820039808CF
:1006B0002003085220039808200398082003E80329
:1006C00020039808200306092003980820039808AF
:1006D00020039808200308520100020401030105C9
:1006E00000000000000000000204010301030105F6
:0606F000000000000011F3
:00000001FF
